:10740000E0E0F0E0859194910196089520E82093C2
:1074100061001092610081E085BF82E085BF80EF4E
:1074200085B987EE84B91DB8769A10BA80EF81BB12
:1074300084E68BB984EF8AB980E58CBD81E08DBD8F
:10744000089580EE8BB98BEA5DD0109289008AEFA7
:107450008093880082E080936F0083E080938100B6
:107460005C9AE0E0F0E280E063D03197E1F75C986D
:10747000E7E0F1E05CD0EA31E9F7ABE2B4E0EAE161
:10748000F1E003E010E101900D921A95E1F7A059A7
:10749000BF4F0A95B9F753D081E08093D7008AE4B3
:1074A00082BF1092D8001092E2001092DA0010927F
:1074B000E10080E808D019BC1EBA1092E00066D442
:1074C00089E052D481E98093D8000895F201F999B6
:1074D000FECFF2BDE1BD0895F9DFF89A80B508C08E
:1074E000F5DF1FBA80BD0FB6F894FA9AF99A0FBE6D
:1074F00031962F01089590E81BD08D939A95E1F76E
:10750000089586E008D010C083E005D08F2F10D0FA
:107510008E2F0ED080E05E9A5A980AC005D085E082
:10752000FADF06D080FDFDCF5A9A5E9808958191CA
:107530008EBD8DB5000087FFFCCF8EB50895E3EFBB
:10754000F2E05C9A40E458E06081718198E08FEF4E
:1075500060FF8F7070FF807FEBDF669576959A9560
:10756000B1F7E058FF4F5A9579F7EE5FF3404A952F
:1075700051F70895E1EEF1E08191908101969083B9
:107580008293092E0AF400940091DF0106FB5EF05D
:107590000096929111F493959083000C081620F4B4
:1075A0002E9A2F9A2D9A0895937009F42E9891305F
:1075B00009F42F98923009F42D980895E8EDF1E040
:1075C00097819923EAF08FB18095807F669B8860D0
:1075D0001C9B84609581891310C09681992381F446
:1075E0009381891306C09481992396E959F080E02C
:1075F0000AC083839095892304C085839AE096838B
:1076000080E09FEF9483828308958091DF0186FF5D
:10761000C7DF22243324E3EFF1E08091DA0187FD14
:107620001BC084FD32C082FF0895C685CC23E1F3E0
:10763000F894289A0088F785E02D66DFE0E0F0E016
:10764000A3EFB1E058DFA3EFB1E034D3E058FF4F30
:10765000CA95B1F769DFBFC18301282D6090FC0195
:107660007090FB0146D019F48823C1F708953801C2
:1076700088243FD0E1F58091FA01821709F4830153
:107680006090FE017090FD01F4CF6090FE0170905B
:10769000FD012FD081F48823C1F708959FEF85FD68
:1076A00008C086FD05C083FF0895AADEE9F393C1F3
:1076B00091E097FB890E662477248301222719D055
:1076C000B1F4882389F38091FA0136F0881650F4DA
:1076D000821730F0213003C0881520F4281710F4E9
:1076E0008301282F6090FE017090FD01E8CF3801E2
:1076F000822EF30109DFA3EFB1E0FDDEC3EFD1E09D
:10770000E0E0F1E097E009908191081621F49A9564
:10771000D1F70880801008CFC9E0EDDECA95E9F7FF
:0877200003DF0DDF8827089547
:1077280041524455424F5915003F75104FA055A17D
:1077380000A200A87F81CFB121AF0000FFFFCFCF0B
:10774800FFFFFFFFCFCFFFFF0000FE067E7E06FE95
:1077580046565616FE0656461EFE3F61E9E3FFE30F
:10776800EBE3FFE3EBE3FFE16B3F120110010200E3
:1077780000084123370001000201000109023E0010
:107788000201008032090400000102020100052400
:1077980000100104240204052406000107058203E1
:1077A8000800FF09040100020A000000070504029E
:1077B80010000107058302100001040309042203D5
:1077C800410072006400750069006E006F002000BF
:1077D8004D006900630072006F0020002000200047
:1077E8001803410072006400750069006E006F00A4
:0877F80020004C004C0043008E
:1078000011241FBE8DEF9AE09EBF8DBF04B714BE3A
:1078100088E18093600010926000409100085091D0
:1078200001086F917F91A6C00F928F939F931F9233
:107830000FB60F9211244F936F938091DA0080FF5F
:107840004CC038C00F920FB68F939F93EF93FF9366
:1078500088278093850080938400E8EDF1E097818C
:10786000907261F490818917980B908309F45D9868
:1078700091818917980B918309F4289896819150EA
:1078800008F096839481915008F09483881639F417
:107890007C9B05C0B5DD19F0C10101961C01FF916B
:1078A000EF915CC080E189BD82E189BD09B400FE31
:1078B000FDCF08958091D80080FF0FC08091DA003D
:1078C0008E7F8093DA008091D90080FF04C0EADFC8
:1078D00081E08EBB02C019BC1EBA8091E10080FF1E
:1078E0000BC03CD280FF08C03CD28091D80080629F
:1078F000EADD19BC85E08EBB8091E10084FF1AC0EF
:107900002DD284FF17C0CEDF8091D8008F7DDBDDC4
:107910008FEE2AD023D28F7E816026D28091E30120
:10792000882331F48091E30087FD02C081E001C02B
:1079300084E08EBB8091E10083FF0CC00FD283FFF7
:1079400009C087EF11D082E08EBB1092E3010BD00B
:1079500008D21CD26F914F910F901F909F918F91E1
:107960000FBE0F9018958EEF0090E1000822009254
:10797000E10008954BDDA0E0B1E0E8E2F7E7059013
:107980000D92A83DE1F71D92BB30E9F701FD0FC054
:1079900000FF03C07C9B0BC008C003FF08C06757F3
:1079A000774729F04757574711F02ADDA1F449DD01
:1079B00022243324310188249CDE789447D00AD3D2
:1079C000FDDD6CDE811411F020DEF8CFD3DDC101C6
:1079D000805B964398F3F89489EB94DD81E0809383
:1079E000E00010926F0010928100109285001092BA
:1079F000840081E085BF15BED3DD5D9828980C9486
:107A00000000A7D107C054D102C0E1D239F0A3D100
:107A100082FFFBCF85FFF7CF8091F1000895082EFC
:107A200083E098D185FD07C08DD102C0D0D269F026
:107A300092D180FFFBCF0092F1008091DF0185FBA6
:107A400026F05D9A84E68093D801089582D182FF62
:107A50004AC18091DF0185FB26F0289A84E6809355
:107A6000D901CFDF182F853431F48CEB94E31C015E
:107A70002DDD8DE008C1843511F4C3DFFACF8C34DD
:107A8000C1F38035B1F3843721F484E4C8DF80E0AA
:107A9000FAC0813611F489E5F6C0813429F4B1DFEA
:107AA000582EAFDF482EE5CF803711F483E5EBC0C9
:107AB000833539F4C0E0D1E08991B1DFC730E1F717
:107AC000E3C0863521F481E3AADF84E3DCC0863796
:107AD00061F481E3669B8E5F1C9B8F5FA0DF8FB19B
:107AE000809582958F708F5BCEC08837A9F489DF2F
:107AF0008093DF01289884FD289A5D9883FD5D9A24
:107B00002E9A81FD2E982F9A82FD2F982D9A80FD16
:107B10002D9887FD8824ADCF8A3649F48FE9FBDCA8
:107B2000C3E006DD7CDFCA95E1F7FEDCADC083373C
:107B300031F487E874DF85E972DF8EE1A4C0853611
:107B400039F4E0E8F3E7C7D0E058F040E0F791CF30
:107B5000823631F489E563DF80E061DF80E893C03D
:107B6000823419F0873609F07AC02224332449DFA1
:107B7000D82F47DFC82F45DF082F8354843008F003
:107B800081C0063411F4440C551CF20110926F00B0
:107B90001736A1F4033471F483E0B7DCC9DC3FDFAE
:107BA0002197E1F7C1DC08C0063411F4859101C0CA
:107BB00093DC35DF2197C2F72F0149C00334A1F4CC
:107BC0008E2F8F7021F49DDC80E29FDCA7DC99DC96
:107BD00082E09BDC16DFACDCCA95E1F79FDC3196D6
:107BE000DA9571F72F0131C00634F1F49F01F437B3
:107BF000D8F471D019C005DF063461F4C0FB46F03B
:107C0000F43728F4182E81E087BFE89511243296C6
:107C1000082E0AC0043439F4DF01B370AD50BD4FF3
:107C20008D93319601C05CDC21972AF7043431F43E
:107C30002F01F370FE2B49F482DC07C0063429F4CF
:107C40002F01F901F43708F444D08DE0E8DE063462
:107C500011F45694479482E080936F0015C08237E8
:107C6000E1E049F08634E0E031F08E34E3E019F0F1
:107C7000813531F4E2E0F0E089E087BF849103C010
:107C80008B3111F08FE3CBDE83E0B1D15BD095FF78
:107C900003C009C09CD139F15ED080FFFBCF52D028
:107CA00002C095D101F157D080FFFBCF84E09FD176
:107CB0008BE749C0F437B8F40ED090E40D901D90D6
:107CC00081E087BFE89532969A95C1F71124E05874
:107CD000F04085E001C083E001D081E187BFE895F5
:107CE00007B600FCFDCF08959091EB018091EC0167
:107CF000913231F0913A61F5813251F538D087C037
:107D0000803231F534D063D1E9F08530D9F023D019
:107D100083FD18C082FFF7CF04C07EDE81936150DF
:107D200031F09091F3008091F200892BB1F7C0DF20
:107D3000611549F704C04BD129F0853019F00BD0FB
:107D400080FFF9CF8EE79091E80089238093E800C7
:107D5000089584E04CD18091E80008958091E2007C
:107D60000895FCDF8E7F80618093E20008952DD11D
:107D7000E4EEF1E067E0089582E061EC09D083E091
:107D800061E802D084E060E842E103C080E060E0A6
:107D900042E02DD181E007D01092ED006093EC001D
:107DA0004093ED0008959091EB00892B8093EB00B8
:107DB000089560E0923039F0933041F0913099F4B9
:107DC000EAE462E110C0ECE56EE30DC0813018F426
:107DD000EAE964E008C019F4EEE962E204C0823026
:107DE00011F4E0EC68E1F1E008958091EB01882363
:107DF0004CF402C0ECD051F0AEDF82FFFBCF58CF85
:107E0000E6D021F0A8DF80FFFBCF9CDF08954091F2
:107E1000F1015091F2014617510510F490E028C08D
:107E2000611511F0462FFACF8DDF40E0F7CFCFD0AC
:107E300059F1853049F18FDF83FD3ACF8CDF82FD28
:107E400020C080FF15C03091F3002091F20005C0E2
:107E500081918093F10041502F5F411519F0283036
:107E60003105B0F350E02830310509F451E06ADF04
:107E70004115E9F65523D9F604C0A9D029F085307B
:107E800019F069DF82FFF9CF13CFEBEEF1E0C4DD2B
:107E90008193E33FE1F728DF5EDF83FF91C08091AC
:107EA000EB019091EC01913009F170F09330F1F019
:107EB000953009F444C0963009F456C0983009F45E
:107EC00060C0993059F767C0823841F78091EF015F
:107ED0008DD02091EB001092E90077D02295269565
:107EE00021702093F1001092F10052C0882311F00C
:107EF0008230A1F68F71823089F68091ED0188235E
:107F0000D1F42091EF01277049F22093E90080918C
:107F1000EB0080FF10C0933011F480E20BC080E1D1
:107F200042DF81E0880F2A95E9F78093EA001092FA
:107F3000EA0088E038DF1092E90047D02AC08823A1
:107F400091F41091ED0110680FB7F8943ED04DDF19
:107F500002DF80FFFDCF1093E300103883E009F4C7
:107F600082E08EBB0FBF2CC08058823048F58091D4
:107F7000ED019091EE011DDF603011F126D047DF59
:107F80001FC08038E9F421D08091E3018093F10093
:107F9000D9DE2BDF15C0882399F49091ED01923042
:107FA00078F49093E30111D020DF8091E3018823DE
:107FB00021F48091E30091E087FD94E09EBBDCDE3C
:107FC000CADE83FF089580E2EEDE87EFBCCE8EB37B
:107FD00088230895FCDF69F08091E9008F93109267
:107FE000E900B9DE83FF01C050DF8F918770809375
:047FF000E900089507
:047FFC005BCEFBDC81
:040000030000740085
:00000001FF
