:10740000E0E0F0E0859194910196089520E82093C2
:1074100061001092610081E085BF82E085BF81EF4D
:1074200085B987EE84B984E08DB984E48EB910BA49
:1074300080EF81BB80E68BB980EF8AB980E58CBD97
:1074400081E08DBD089580EE8BB98BEA57D0109204
:1074500089008AEF8093880082E080936F0083E048
:1074600080938100E7E0F1E05ED0E331E9F7A7EE39
:10747000B3E0E3E1F1E003E010E101900D921A9531
:10748000E1F7A059BF4F0A95B9F756D081E0809334
:10749000D7008AE482BF1092D8001092E2001092C6
:1074A000DA001092E10080E808D019BC1EBA1092F0
:1074B000E0006ED489E05AD481E98093D800089521
:1074C000F201F999FECFF2BDE1BD0895F9DFF89A16
:1074D00080B508C0F5DF1FBA80BD0FB6F894FA9AE0
:1074E000F99A0FBE31962F010895AFEAB1E090E806
:1074F0001BD08D939A95E1F7089586E008D010C0CF
:1075000083E005D08F2F10D08E2F0ED080E05E9AB2
:1075100072980AC005D085E0FADF06D080FDFDCF65
:10752000729A5E98089581918EBD8DB5000087FF97
:10753000FCCF8EB50895F4DFEFEAF2E090EB5C98B3
:10754000892FF2DF80E1F0DF5C9AEDDF8FEA8E2792
:107550008F77D9F79395983B91F70895EDE9F1E08E
:1075600081919081019690838293092E0AF4009470
:1075700000919B0106FB5EF00096929111F49395A9
:107580009083000C081620F42E9A2F9A2D9A0895B5
:10759000937009F42E98913009F42F98923009F4E1
:1075A0002D980895E4E9F1E097819923EAF08FB1ED
:1075B0008095807F669B88601C9B84609581891381
:1075C00010C09681992381F49381891306C0948118
:1075D000992396E959F080E00AC083839095892326
:1075E00004C085839AE0968380E09FEF9483828332
:1075F000089580919B0186FFC7DF22243324E4E9AC
:10760000F1E0108611861286EFEAF1E08091960192
:1076100087FD36C084FD4DC082FF08952684222058
:10762000E1F3F894C089D78520E030E080E090E471
:10763000AFEFBFEF119682199040E0F72D01B14BEB
:107640008D0127FD13C0ECE4F4E011928EE78193E5
:1076500092E4E11791939AE508F092E4EF38C9F7C4
:107660008193108268DFFE0121964ADF3EDFF90137
:1076700021D320583F4F040D151D2A9411F7ABC19B
:107680008301282D6090B8017090B70146D019F49D
:107690008823C1F70895380188243FD0E1F580910F
:1076A000B601821709F483016090BA017090B901A4
:1076B000F4CF6090BA017090B9012FD081F4882383
:1076C000C1F708959FEF85FD08C086FD05C083FFC3
:1076D000089596DEE9F37FC191E097FB890E662459
:1076E00077248301222719D0B1F4882389F380916C
:1076F000B60136F0881650F4821730F0213003C0FE
:10770000881520F4281710F48301282F6090BA01FF
:107710007090B901E8CF3801822EF301F1DEE5DE89
:10772000CFEAD1E0E0E0F1E097E00990819108161E
:1077300021F49A95D1F708808010F2CEC9E0D7DE07
:0A774000CA95E9F7F8DE88270895DE
:10774A0041524455424F59D5F08D14A1C881CFD921
:10775A00F1AF000000FFFFCFCFFFFFFFFFCFCFFF4A
:10776A00FF0000FE067E7E06FE46565616FE0656AA
:10777A00461EFE3F61E9E3FFE3EBE3FFE3EBE3FFD2
:10778A00E16B3F120110010200000841233600019B
:10779A00000000000109023E0002010080320904D3
:1077AA000000010202010005240010010424020461
:1077BA000524060001070582030800FF09040100E9
:1077CA00020A0000000705040210000107058302EF
:0477DA00100001009A
:1078000011241FBE8DEF9AE09EBF8DBF04B714BE3A
:1078100088E18093600010926000409100085091D0
:1078200001086F917F91A6C00F928F939F931F9233
:107830000FB60F9211244F936F938091DA0080FF5F
:107840004CC038C00F920FB68F939F93EF93FF9366
:1078500088278093850080938400E4E9F1E0978194
:10786000907261F490818917980B908309F45D9A66
:1078700091818917980B918309F4289A96819150E8
:1078800008F096839481915008F09483881639F417
:107890007C9B05C0B5DD19F0C10101961C01FF916B
:1078A000EF915CC080E189BD82E189BD09B400FE31
:1078B000FDCF08958091D80080FF0FC08091DA003D
:1078C0008E7F8093DA008091D90080FF04C0EADFC8
:1078D00081E08EBB02C019BC1EBA8091E10080FF1E
:1078E0000BC03ED280FF08C03ED28091D80080629B
:1078F000E4DD19BC85E08EBB8091E10084FF1AC0F5
:107900002FD284FF17C0CEDF8091D8008F7DD5DDC8
:107910008FEE2AD025D28F7E816028D280919F0160
:10792000882331F48091E30087FD02C081E001C02B
:1079300084E08EBB8091E10083FF0CC011D283FFF5
:1079400009C087EF11D082E08EBB10929F010BD04F
:107950000AD21ED26F914F910F901F909F918F91DD
:107960000FBE0F9018958EEF0090E1000822009254
:10797000E10008954BDDA0E0B1E0EAE4F7E705900F
:107980000D92A339E1F71D92BB30E9F701FD0FC05D
:1079900000FF03C07C9B0BC008C003FF08C06757F3
:1079A000774729F04757574711F02ADDA1F44BDDFF
:1079B0002224332431018824B0DE789447D0FDD2CC
:1079C000F1DD80DE811411F014DEF8CFC7DDC101D6
:1079D000805B964398F3F89489EB90DD81E0809387
:1079E000E00010926F0010928100109285001092BA
:1079F000840081E085BF15BEC7DD5D9A289A0C948E
:107A00000000A9D107C054D102C0D4D239F0A5D109
:107A100082FFFBCF85FFF7CF8091F1000895082EFC
:107A200083E09AD185FD07C08FD102C0C3D269F02F
:107A300094D180FFFBCF0092F10080919B0185FBE8
:107A400026F05D9884E680939401089584D182FFA6
:107A50004CC180919B0185FB26F0289884E6809399
:107A60009501CFDF182F853431F48CEB94E31C01A2
:107A700027DD8DE008C1843511F4C3DFFACF8C34E3
:107A8000C1F38035B1F3843721F484E4C8DF80E0AA
:107A9000FAC0813611F489E5F6C0813429F4B1DFEA
:107AA000582EAFDF482EE5CF803711F483E5EBC0C9
:107AB000833539F4C0E0D1E08991B1DFC730E1F717
:107AC000E3C0863521F481E3AADF84E3DCC0863796
:107AD00061F481E3669B8E5F1C9B8F5FA0DF8FB19B
:107AE000809582958F708F5BCEC08837A9F489DF2F
:107AF00080939B01289A84FD28985D9A83FD5D9868
:107B00002E9A81FD2E982F9A82FD2F982D9A80FD16
:107B10002D9887FD8824ADCF8A3649F48FE9F7DCAC
:107B2000C3E002DD7CDFCA95E1F7FADCADC0833744
:107B300031F487E874DF85E972DF8EE1A4C0853611
:107B400039F4E0E8F3E7C9D0E058F040E0F791CF2E
:107B5000823631F489E563DF80E061DF80E893C03D
:107B6000823419F0873609F07AC02224332449DFA1
:107B7000D82F47DFC82F45DF082F8354843008F003
:107B800081C0063411F4440C551CF20110926F00B0
:107B90001736A1F4033471F483E0B3DCC5DC3FDFB6
:107BA0002197E1F7BDDC08C0063411F4859101C0CE
:107BB0008DDC35DF2197C2F72F0149C00334A1F4D2
:107BC0008E2F8F7021F499DC80E29BDCA3DC95DCA6
:107BD00082E097DC16DFA8DCCA95E1F79BDC3196E2
:107BE000DA9571F72F0131C00634F1F49F01F437B3
:107BF000D8F473D019C005DF063461F4C0FB46F039
:107C0000F43728F4182E81E087BFE89511243296C6
:107C1000082E0AC0043439F4DF01B370A155BD4FFA
:107C20008D93319601C056DC21972AF7043431F444
:107C30002F01F370FE2B49F47FDC07C0063429F4D2
:107C40002F01F901F43708F446D08DE0E8DE063460
:107C500011F45694479482E080936F0015C08237E8
:107C6000E1E049F08634E0E031F08E34E3E019F0F1
:107C7000813531F4E2E0F0E089E087BF849103C010
:107C80008B3111F08FE3CBDE83E0A4D15DD095FF83
:107C900003C009C08FD149F160D080FFFBCF54D021
:107CA00002C088D111F159D080FFFBCF84E092D17E
:107CB0008BE74BC0AFEAB1E0F437B8F40ED090E4F4
:107CC0000D901D9081E087BFE89532969A95C1F797
:107CD0001124E058F04085E001C083E001D081E14B
:107CE00087BFE89507B600FCFDCF08959091A701E6
:107CF0008091A801913231F0913A61F5813251F5CC
:107D000038D078C0803231F534D054D1E9F08530A4
:107D1000D9F023D083FD18C082FFF7CF04C07CDEEA
:107D20008193615031F09091F3008091F200892BA2
:107D3000B1F7BEDF611549F704C03CD129F08530A9
:107D400019F00BD080FFF9CF8EE79091E8008923DE
:107D50008093E800089584E03DD18091E800089583
:107D60008091E2000895FCDF8E7F80618093E200C5
:107D700008951ED1E0EAF1E067E0089582E061EC49
:107D800009D083E061E802D084E060E842E103C00A
:107D900080E060E042E01ED181E007D01092ED006B
:107DA0006093EC004093ED0008959091EB00892BD7
:107DB0008093EB00089560E0923029F0913031F427
:107DC000E3E462E103C0E5E56EE300C0F1E008959D
:107DD0008091A70188234CF402C0ECD051F0BDDFA4
:107DE00082FFFBCF65CFE6D021F0B7DF80FFFBCF6E
:107DF000ABDF08954091AD015091AE01461751059A
:107E000010F490E028C0611511F0462FFACF9CDFE6
:107E100040E0F7CFCFD059F1853049F19EDF83FDA7
:107E200047CF9BDF82FD20C080FF15C03091F3005B
:107E30002091F20005C081918093F10041502F5FA5
:107E4000411519F028303105B0F350E028303105E4
:107E500009F451E079DF4115E9F65523D9F604C05C
:107E6000A9D029F0853019F078DF82FFF9CF20CF33
:107E7000E7EAF1E0D1DD8193EF3AE1F737DF6DDF3B
:107E800083FF91C08091A7019091A801913009F1E1
:107E900070F09330F1F0953009F444C0963009F455
:107EA00056C0983009F460C0993059F767C08238DD
:107EB00041F78091AB018DD02091EB001092E90049
:107EC00077D02295269521702093F1001092F10031
:107ED00052C0882311F08230A1F68F71823089F66A
:107EE0008091A9018823D1F42091AB01277049F238
:107EF0002093E9008091EB0080FF10C0933011F4D3
:107F000080E20BC080E151DF81E0880F2A95E9F71C
:107F10008093EA001092EA0088E047DF1092E900BF
:107F200047D02AC0882391F41091A90110680FB797
:107F3000F8943ED04DDF11DF80FFFDCF1093E300BA
:107F4000103883E009F482E08EBB0FBF2CC080584C
:107F5000823048F58091A9019091AA012CDF603010
:107F600011F126D047DF1FC08038E9F421D080917D
:107F70009F018093F100E8DE2BDF15C0882399F480
:107F80009091A901923078F490939F0111D020DF55
:107F900080919F01882321F48091E30091E087FD87
:107FA00094E09EBBEBDED9DE83FF089580E2FDDE28
:107FB00087EFCBCE8EB388230895FCDF69F08091E4
:107FC000E9008F931092E900C8DE83FF01C050DF03
:0A7FD0008F9187708093E9000895F7
:047FFC005DCEFBDC7F
:040000030000740085
:00000001FF
