:1074000080E189BD82E189BD09B400FEFDCF089508
:10741000C8D569F08091E9008F931092E9009DD45E
:1074200083FF01C01CD58F9187708093E900089578
:107430008EEF0090E10008220092E1000895F20131
:10744000F999FECFF2BDE1BD0895F9DFF89A80B554
:1074500008C0F5DF1FBA80BD0FB6F894FA9AF99A02
:107460000FBE31962F010895E0E0F0E085919491F0
:107470000196089581E28BB98BEA34D0109289008D
:107480008AEF8093880082E080936F0083E080938E
:107490008100E3E5F7E7859138D0EF35E1F781E04A
:1074A0008093D7008AE482BF1092D8001092E20045
:1074B0001092DA001092E10080E808D019BC1EBAE0
:1074C0001092E00060D489E051D481E98093D80023
:1074D0000895A3E6B1E090E818D08D939A95E1F76E
:1074E000089586E008D00FC083E005D08F2F0DD01F
:1074F0008E2F0BD080E0599808C005D085E0FBDFC7
:1075000004D080FDFDCF599A08958EBD8DB587FFBB
:10751000FDCF8EB508958FE08221E9F7F4DFE3E631
:10752000F6E090EB5C98892FF0DF80E1EEDF5C9A6B
:107530008191EBDF83E68E278F77D1F79395983B88
:1075400089F70895E3E6F1E097FC36C094FC4DC05E
:1075500092FE089596849920D1F3F894C089D78536
:1075600020E030E080E090E4AFEFBFEF11968919A2
:107570009040E0F72D01BD4F8D0127FD13C0E0E0E5
:10758000F8E011928EE7819392E4E11791939AE5E6
:1075900008F092E4E334C9F781931082BFDFFE0163
:1075A0002196A2DF96DFF901FFD420583F4F040D4A
:1075B000151D9A9411F712C28301282D60906C0159
:1075C00070906B0143D019F48823C1F708953801F6
:1075D00088243CD0C9F580916A01821709F483019F
:1075E00060906E0170906D01F4CF80E1982E6090F4
:1075F0006E0170906D012AD059F48823B1F7089577
:107600009FEF95FC03C096FE089591E097FB890ECD
:10761000662477248301222719D0B1F48823A1F3AB
:1076200080916A0136F0881650F4821730F02130CC
:1076300003C0881520F4281710F48301282F6090C8
:107640006E0170906D01E8CF3801822EF3014CDF9E
:1076500040DFC3E6D1E0ECE4F7E709908591081636
:1076600021F4E335D1F7088080104DCFC9E033DF36
:10767000CA95E9F7D0E197FC55C094FC37C096FE57
:107680001AC0C3E6D2E0E3E6F6E098E088E78E0FA2
:1076900000840192E817E1F7884F09900192E817FA
:1076A000E1F7C858DF4F9A9589F735DFC85FD340B7
:1076B000C33E49F749C0C3E6D6E0EBE5FAE098E0FF
:1076C0008E2F885702900086E817E1F738960A90C7
:1076D0000292E817E1F73897C857D0409A9581F79A
:1076E0001ADFC850DC4FC33E41F72EC0A3EEB6E010
:1076F000E3E6F6E09AE0C6E00D9080818025807F89
:10770000802582958193A336B90709F4B2E0E33668
:10771000F90709F4F2E0E336FC0771F7FCDEDA95CD
:1077200029F712C0A3EEB9E0E3E6FAE092E00E908A
:10773000829180258F70802582958083E336F907BA
:10774000B1F7E9DEDA9571F788270895415244557B
:10775000424F59D5F08D14A1C881CFD9F1AF0000A7
:1077600000FFFFCFCFFFFFFFFFCFCFFFFF0000FEE7
:10777000067E7E06FE46565616FE0656461EFE3F00
:1077800061E9E3FFE3EBE3FFE3EBE3FFE16B3F00E2
:107790001201100102000008412336000100000020
:1077A000000109023E0002010080320904000001CC
:1077B000020201000524001001042402040524062D
:1077C0000001070582030800FF09040100020A0006
:1077D00000000705040210000107058302100001E4
:1078000011241FBE04B714BE88E18093600010925B
:1078100060008EEF9AE09EBF8DBF222433242101A9
:107820003101410180E88AC00F928F939F931F928C
:107830000FB60F9211244F936F938091DA0080FF5F
:1078400037C023C00F920FB68F939F93EF93FF9390
:1078500088278093850080938400E0E5F1E09281A1
:10786000907261F490818917980B908309F45D9A66
:1078700091818917980B918309F4289A239411F424
:107880008315381EFF91EF9154C08091D80080FF7E
:107890000FC08091DA008E7F8093DA008091D9004A
:1078A00080FF04C0ADDD81E08EBB02C019BC1EBAF2
:1078B0008091E10080FF0BC053D280FF08C053D2FB
:1078C0008091D800806202DE19BC85E08EBB809179
:1078D000E10084FF1AC044D284FF17C091DD80917B
:1078E000D8008F7DF3DD8FEEA4DD3AD28F7E8160EC
:1078F0003DD280915301882331F48091E30087FDCC
:1079000002C081E001C084E08EBB8091E10083FF72
:107910000CC026D283FF09C087EF8BDD82E08EBBCF
:107920001092530185DD1FD22ED26F914F910F908F
:107930001F909F918F910FBE0F90189580936100BB
:1079400010926100B1E0B5BF82E085BF81EF85B9DB
:1079500087EE84B91DB8769A10BA83EF81BB83E2B3
:107960008BB983E38AB980E58CBDBDBDA0E0E0E9B9
:10797000F7E705900D92A035E1F71D92BB30E9F7CE
:1079800000FF04C07C9B02C06FDD41F573DD78947D
:107990005DDE71F0ABE9B7E0EFE5F7E790E1059068
:1079A0000D929A95E1F7A059BF4FEF38B9F7B7DDBF
:1079B00052D02EDD80915201807861F48FB1809594
:1079C000807F66991C9B8460982E1ADE8110BADD38
:1079D00092FC02C0332062F747DD51F3F89489EB43
:1079E00081DD81E08093E00010926F0010928100B1
:1079F000109285001092840081E085BF15BE2E9AFA
:107A0000589A2D9A5D9A289A0C940000A4D107C028
:107A100057D102C0C6D239F0A0D182FFFBCF85FF7B
:107A2000F7CF8091F1000895082E83E095D185FD70
:107A300007C08AD102C0B5D269F08FD180FFFBCFD9
:107A40000092F10080915201807221F45D9884E6E9
:107A50008093500108957FD182FF34C180915201FB
:107A6000807221F4289884E680935101CFDF182F8B
:107A7000853431F422248EE7382EE1DC8DE00BC111
:107A8000843511F4C3DFFACF8C34C1F38035B1F300
:107A9000843721F484E4C8DF80E0FDC0813611F42E
:107AA00089E5F9C0813429F4B1DF582EAFDF482EC3
:107AB000E5CF803711F483E5EEC0833539F4ECE48B
:107AC000F7E78591B1DFE335E1F7E6C0863521F4CC
:107AD00082E3AADF80E3DFC0863761F481E3669B3F
:107AE0008E5F1C9B8F5FA0DF8FB1809582958F701A
:107AF0008F5BD1C08837A9F489DF80935201289A1F
:107B000084FD28985D9A83FD5D982E9A81FD2E98BC
:107B1000589A82FD58982D9A80FD2D9887FD8824CB
:107B2000ADCF8A3649F48FE9E6DCC3E0EEDC7CDFDA
:107B3000CA95E1F7E8DCB0C0833731F487E874DF39
:107B400085E972DF8EE1A7C0853639F4E0E8F3E716
:107B50003ED2E058F040E0F791CF823631F489E52B
:107B600063DF80E061DF80E896C0823419F08736F9
:107B700009F07DC033244ADFD82F48DFC82F46DF05
:107B8000082F8354843008F085C0063411F4440C67
:107B9000551CF20110926F001736B9F4033489F4C2
:107BA00083E0A3DCB2DC8EB51EBC3EDF0DB42197B2
:107BB000D1F7A9DC08C0063411F4859101C045DC79
:107BC00033DF2197C2F72F014AC00334A9F4E11132
:107BD00004C087DC88ED89DC90DC83DC82E085DC16
:107BE00015DF0DB48EBDCA95D9F731968FDC85DCD3
:107BF000DA9569F72F0131C00634F1F49F01F437AB
:107C0000D8F4E5D119C002DF063461F4C0FB46F0B8
:107C1000F43728F4182E81E087BFE89511243296B6
:107C2000082E0AC0043439F4DF01B370AD59B94FDE
:107C30008D93319601C00DDC21972AF7043431F47D
:107C40002F01F370FE2B49F46ADC07C0063429F4D7
:107C50002F01F901F43708F4B8D18DE0E5DE0634E0
:107C600011F45694479482E080936F0015C08237D8
:107C7000E1E049F08634E0E031F08E34E3E019F0E1
:107C8000813531F4E2E0F0E089E087BF849103C000
:107C90008B3111F08FE3C8DE83E0C7DB55D095FF51
:107CA00003C009C07ED171F058D080FFFBCF4CD00B
:107CB00002C077D139F051D080FFFBCF84E0B5DB33
:107CC0008BE743C00895E4E5F1E067E090915B0144
:107CD00080915C01913231F0913AE1F58132D1F538
:107CE0005ED181C0823271F48191805B8191844048
:107CF00089F580915D0180FD2DC0F89481E080932D
:107D0000E0007ECD803231F54AD14BD1E9F08530AB
:107D1000D9F023D083FD18C082FFF7CF04C081DEE5
:107D20008193615031F09091F3008091F200892BA2
:107D3000B1F7C6DF611549F704C033D129F08530AA
:107D400019F00BD080FFF9CF8EE79091E8008923DE
:107D50008093E800089584E068DB8091E80008954E
:107D60008091E2000895FCDF8E7F80618093E200C5
:107D7000089582E061EC09D083E061E802D084E0FC
:107D800060E842E103C080E060E042E04EDB81E079
:107D900007D01092ED006093EC004093ED00089541
:107DA0009091EB00892B8093EB00089560E0923076
:107DB00029F0913029F4E0E062E102C0E2E16EE3F3
:107DC000F1E0089580915B0188234CF402C0E9D072
:107DD000C1F3C3DF82FFFBCF73CFE3D091F3BDDFED
:107DE00080FFFBCFB1CF40916101509162014617F6
:107DF000510520F0462F611509F4A6DF50E022C09E
:107E0000D0D061F1853051F1A8DF83FD59CFA5DFD6
:107E100082FD21C080FF16C03091F3002091F20056
:107E200006C081918093F10041502F5F3F4F411573
:107E300019F028303105A8F350E02830310509F455
:107E400051E082DF4115E1F65523D1F604C0A9D0F7
:107E500029F0853019F081DF82FFF9CF31CFEBE5D2
:107E6000F1E0DFDD8193E336E1F72DDF76DF83FF9D
:107E700091C080915B0190915C01913009F170F0AB
:107E80009330F1F0953009F444C0963009F456C0AF
:107E9000983009F460C0993059F767C0823841F7CB
:107EA00080915F01C1DA2091EB001092E90077D058
:107EB0002295269521702093F1001092F10052C076
:107EC000882311F08230A1F68F71823089F680917B
:107ED0005D018823D1F420915F01277049F220933E
:107EE000E9008091EB0080FF10C0933011F480E234
:107EF0000BC080E155DF81E0880F2A95E9F7809378
:107F0000EA001092EA0088E04BDF1092E90047D0C7
:107F10002AC0882391F410915D0110680FB7F8947E
:107F20003ED050DF1ADF80FFFDCF1093E300103802
:107F300083E009F482E08EBB0FBF2CC080588230F2
:107F400048F580915D0190915E0130DF603011F164
:107F500026D049DF1FC08038E9F421D08091530139
:107F60008093F100F1DE2EDF15C0882399F4909103
:107F70005D01923078F49093530111D023DF80910A
:107F80005301882321F48091E30091E087FD94E080
:107F90009EBBEFDEE2DE83FF089580E201DF87EF24
:107FA000D4CE8EB388230895A3E6B1E0F437B8F4B5
:107FB0000ED090E40D901D9081E087BFE895329639
:107FC0009A95C1F71124E058F04085E001C083E0A4
:107FD00001D081E187BFE89507B600FCFDCF089589
:067FFA003230D7CFFBDCA2
:040000030000740085
:00000001FF
