:1074000080E189BD82E189BD09B400FEFDCF089508
:10741000D4D569F08091E9008F931092E900A9D446
:1074200083FF01C028D58F9187708093E90008956C
:107430008EEF0090E10008220092E1000895F20131
:10744000F999FECFF2BDE1BD0895F9DFF89A80B554
:1074500008C0F5DF1FBA80BD0FB6F894FA9AF99A02
:107460000FBE31962F010895E0E0F0E085919491F0
:107470000196089580EE8BB98BEA34D01092890082
:107480008AEF8093880082E080936F0083E080938E
:107490008100E7E5F7E785913AD0E336E1F781E04F
:1074A0008093D7008AE482BF1092D8001092E20045
:1074B0001092DA001092E10080E808D019BC1EBAE0
:1074C0001092E0006CD489E05DD481E98093D8000B
:1074D0000895A3E6B1E090E81AD08D939A95E1F76C
:1074E000089586E008D010C083E005D08F2F0FD01C
:1074F0008E2F0DD080E05F9A5A9809C005D085E0A4
:10750000FADF05D080FDFDCF5A9A5F9808958EBDB1
:107510008DB587FFFDCF8EB508958FE08221E9F705
:10752000F3DFE3E6F6E090EB5C98892FF0DF80E193
:10753000EEDF5C9A8191EBDF83E68E278F77D1F7C0
:107540009395983B89F70895E3E6F1E094FC38C001
:1075500096FC4FC090FE08958684882011F49924EB
:1075600059C0F894C089D78520E030E080E090E4ED
:10757000AFEFBFEF119688199040E0F72D01BD4F96
:107580008D0127FD13C0E0E0F8E011928EE78193B2
:1075900092E4E11791939AE508F092E4E334C9F795
:1075A00081931082BDDFFE0121969EDF92DFF901FB
:1075B00007D520583F4F040D151D8A9411F716C2A8
:1075C0008301282D60906C0170906B0141D019F4FB
:1075D0008823C1F70895380188243AD0B9F58091FD
:1075E0006A01821709F4830160906E0170906D0149
:1075F000F4CF60906E0170906D012AD059F4882309
:10760000C1F708959FEF95FC03C092FE089591E0A5
:1076100097FB890E662477248301222719D0B1F4C1
:107620008823A1F380916A0136F0881650F48217FE
:1076300030F0213003C0881520F4281710F483019E
:10764000282F60906E0170906D01E8CF3801822E76
:10765000F3014ADF3EDFC3E6D1E0E0E5F7E709905A
:107660008591081621F4E735D1F7088080104CCFBA
:10767000C9E031DFCA95E9F7D0E195FC1EC094FC62
:1076800053C096FC35C0C3E6D2E0E3E6F6E098E0EE
:1076900088E78E0F00840192E817E1F7884F099080
:1076A0000192E817E1F7C858DF4F9A9589F735DF5F
:1076B000C85FD340C33E49F749C0C3E6D6E0EBE517
:1076C000FAE098E08E2F885702900086E817E1F7DD
:1076D00038960A900292E817E1F73897C857D040D9
:1076E0009A9581F71ADFC850DC4FC33E41F72EC090
:1076F000A3EEB6E0E3E6F6E09AE0C6E00D90808106
:107700008025807F802582958193A336B90709F46F
:10771000B2E0E336F90709F4F2E0E336FC0771F76B
:10772000FCDEDA9529F712C0A3EEB9E0E3E6FAE051
:1077300092E00E90829180258F70802582958083C3
:10774000E336F907B1F7E9DEDA9571F7882708958E
:1077500041524455424F59D5F08D14A1C881CFD91B
:10776000F1AF000000FFFFCFCFFFFFFFFFCFCFFF44
:10777000FF0000FE067E7E06FE46565616FE0656A4
:10778000461EFE3F61E9E3FFE3EBE3FFE3EBE3FFCC
:04779000E16B3F006A
:10779400120110010200000841233600010000001C
:1077A400000109023E0002010080320904000001C8
:1077B4000202010005240010010424020405240629
:1077C4000001070582030800FF09040100020A0002
:1077D40000000705040210000107058302100001E0
:1078000011241FBE04B714BE88E18093600010925B
:1078100060008EEF9AE09EBF8DBF222433242101A9
:107820004394310141018AC00F928F939F931F921D
:107830000FB60F9211244F936F938091DA0080FF5F
:1078400037C023C00F920FB68F939F93EF93FF9390
:1078500088278093850080938400E0E5F1E09281A1
:10786000907261F490818917980B908309F45D9A66
:1078700091818917980B918309F4289A239411F424
:107880008315381EFF91EF9154C08091D80080FF7E
:107890000FC08091DA008E7F8093DA008091D9004A
:1078A00080FF04C0ADDD81E08EBB02C019BC1EBAF2
:1078B0008091E10080FF0BC05FD280FF08C05FD2E3
:1078C0008091D800806202DE19BC85E08EBB809179
:1078D000E10084FF1AC050D284FF17C091DD80916F
:1078E000D8008F7DF3DD8FEEA4DD46D28F7E8160E0
:1078F00049D280915301882331F48091E30087FDC0
:1079000002C081E001C084E08EBB8091E10083FF72
:107910000CC032D283FF09C087EF8BDD82E08EBBC3
:107920001092530185DD2BD23AD26F914F910F9077
:107930001F909F918F910FBE0F90189580E88093B4
:10794000610010926100B1E0B5BF82E085BF87E0C1
:1079500084B981E785B917B8469A10BA80EC81BB23
:1079600084EA8BB984EF8AB980E58CBDBDBDA0E007
:10797000E4E9F7E705900D92A035E1F71D92BB30E1
:10798000E9F701FD09C000FF07C01E9B05C05DDDD2
:10799000882312F069DD51F56DDD789459DE71F0C0
:1079A000ABE9B7E0E3E6F7E790E105900D929A9531
:1079B000E1F7A059BF4FE339B9F7B3DD54D028DD63
:1079C00080915201807871F483B180958077369BE5
:1079D00084607F997E9B8160982E14DE8110B4DDD7
:1079E00090FC02C0332052F73FDD41F3F89489EB5D
:1079F00079DD81E08093E00010926F0010928100A9
:107A0000109285001092840081E085BF15BE289AEF
:107A1000289A289A5D9A289A0C940000A8D107C049
:107A20005BD102C0CAD239F0A4D182FFFBCF85FF5F
:107A3000F7CF8091F1000895082E83E099D185FD5C
:107A400007C08ED102C0B9D269F093D180FFFBCFBD
:107A50000092F10080915201807221F45D9884E6D9
:107A600080935001089583D182FF38C180915201E3
:107A7000807221F4289884E680935101CFDF182F7B
:107A8000853431F422248EE7382ED9DC8DE00FC105
:107A9000843511F4C3DFFACF8C34C1F38035B1F3F0
:107AA000843721F484E4C8DF80E001C1813611F419
:107AB00089E5FDC0813429F4B1DF582EAFDF482EAF
:107AC000E5CF803711F483E5F2C0833539F4E0E582
:107AD000F7E78591B1DFE735E1F7EAC0863521F4B4
:107AE00081E3AADF86E3E3C0863781F481E37F9BED
:107AF0008E5F7E9B8F5FA0DF81E41C9B885F369B3F
:107B00008C5F1D9B8E5F1E9B8F5FD1C08837A9F451
:107B100085DF80935201289A84FD28985D9A83FD21
:107B20005D98289A81FD2898289A82FD2898289A9D
:107B300080FD289887FD8824A9CF8A3649F48FE9EB
:107B4000DADCC3E0E4DC78DFCA95E1F7DDDCB0C065
:107B5000833731F487E870DF85E96EDF8EE1A7C0F7
:107B6000853639F4E0E8F3E73ED2E058F040E0F73C
:107B70008DCF823631F489E55FDF80E05DDF80E81C
:107B800096C0823419F0873609F07DC0332446DF71
:107B9000D82F44DFC82F42DF082F8354843008F0E9
:107BA00085C0063411F4440C551CF20110926F008C
:107BB0001736B9F4033489F483E097DCA8DC8EB57A
:107BC0001EBC3ADF0DB42197D1F79EDC08C0063405
:107BD00011F4859101C039DC2FDF2197C2F72F0105
:107BE0004AC00334A9F4E11104C07BDC88ED7DDCDC
:107BF00085DC77DC82E079DC11DF0DB48EBDCA95BF
:107C0000D9F7319685DC7ADCDA9569F72F0131C036
:107C10000634F1F49F01F437D8F4E5D119C0FEDE43
:107C2000063461F4C0FB46F0F43728F4182E81E0E6
:107C300087BFE89511243296082E0AC0043439F41F
:107C4000DF01B370AD59B94F8D93319601C001DC9E
:107C500021972AF7043431F42F01F370FE2B49F4F5
:107C600060DC07C0063429F42F01F901F43708F469
:107C7000B8D18DE0E1DE063411F45694479482E0E9
:107C800080936F0015C08237E1E049F08634E0E070
:107C900031F08E34E3E019F0813531F4E2E0F0E0C8
:107CA00089E087BF849103C08B3111F08FE3C4DE7C
:107CB00083E0BBDB55D095FF03C009C07ED171F0D6
:107CC00058D080FFFBCF4CD002C077D139F051D0D3
:107CD00080FFFBCF84E0A9DB8BE743C00895E4E598
:107CE000F1E067E090915B0180915C01913231F0AD
:107CF000913AE1F58132D1F55ED181C0823271F4E1
:107D00008191805B8191844089F580915D0180FD46
:107D10002DC0F89481E08093E00072CD803231F57F
:107D20004AD14BD1E9F08530D9F023D083FD18C07A
:107D300082FFF7CF04C07DDE8193615031F09091D6
:107D4000F3008091F200892BB1F7C6DF611549F786
:107D500004C033D129F0853019F00BD080FFF9CF62
:107D60008EE79091E80089238093E800089584E0ED
:107D70005CDB8091E80008958091E2000895FCDFCB
:107D80008E7F80618093E200089582E061EC09D0EB
:107D900083E061E802D084E060E842E103C080E073
:107DA00060E042E042DB81E007D01092ED0060939A
:107DB000EC004093ED0008959091EB00892B8093A7
:107DC000EB00089560E0923029F0913029F4E0E072
:107DD00062E102C0E2E16EE3F1E0089580915B01AF
:107DE00088234CF402C0E9D0C1F3C3DF82FFFBCF8C
:107DF00073CFE3D091F3BDDF80FFFBCFB1CF4091D4
:107E00006101509162014617510520F0462F61151E
:107E100009F4A6DF50E022C0D0D061F1853051F1E5
:107E2000A8DF83FD59CFA5DF82FD21C080FF16C0EA
:107E30003091F3002091F20006C081918093F1000F
:107E400041502F5F3F4F411519F028303105A8F3FD
:107E500050E02830310509F451E082DF4115E1F6A8
:107E60005523D1F604C0A9D029F0853019F081DF5F
:107E700082FFF9CF31CFEBE5F1E0DBDD8193E33633
:107E8000E1F72DDF76DF83FF91C080915B01909158
:107E90005C01913009F170F09330F1F0953009F404
:107EA00044C0963009F456C0983009F460C0993047
:107EB00059F767C0823841F780915F01B5DA2091A8
:107EC000EB001092E90077D022952695217020933F
:107ED000F1001092F10052C0882311F08230A1F617
:107EE0008F71823089F680915D018823D1F42091D1
:107EF0005F01277049F22093E9008091EB0080FF39
:107F000010C0933011F480E20BC080E155DF81E0B6
:107F1000880F2A95E9F78093EA001092EA0088E03A
:107F20004BDF1092E90047D02AC0882391F41091CA
:107F30005D0110680FB7F8943ED050DF1ADF80FF64
:107F4000FDCF1093E300103883E009F482E08EBB8C
:107F50000FBF2CC08058823048F580915D01909110
:107F60005E0130DF603011F126D049DF1FC080385C
:107F7000E9F421D0809153018093F100F1DE2EDFEE
:107F800015C0882399F490915D01923078F4909314
:107F9000530111D023DF80915301882321F4809174
:107FA000E30091E087FD94E09EBBEFDEE2DE83FF1D
:107FB000089580E201DF87EFD4CE8EB38823089541
:107FC000A3E6B1E0F437B8F40ED090E40D901D9024
:107FD00081E087BFE89532969A95C1F71124E05861
:107FE000F04085E001C083E001D081E187BFE895E2
:087FF00007B600FCFDCF089567
:067FFA003136E3CFFBDC91
:040000030000740085
:00000001FF
