:10740000E0E0F0E0859194910196089520E82093C2
:1074100061001092610081E085BF82E085BF80EF4E
:1074200085B987EE84B91DB8769A10BA80EF81BB12
:1074300084E68BB984EF8AB980E58CBD81E08DBD8F
:10744000089580EE8BB98BEA44D0109289008AEFC0
:107450008093880082E080936F0083E080938100B6
:1074600058D057D05C98EFE5F7E7859147D0E237E1
:10747000E1F7ABE9B7E003E010E105900D921A9552
:10748000E1F7A059BF4F0A95B9F743D081E0809347
:10749000D7008AE482BF1092D8001092E2001092C6
:1074A000DA001092E10080E808D019BC1EBA1092F0
:1074B000E00043D489E034D481E98093D800089572
:1074C000A3E6B1E090E81AD08D939A95E1F708957C
:1074D00086E008D010C083E005D08F2F0FD08E2F0C
:1074E0000DD080E05E9A5A9809C005D085E0FADF99
:1074F00005D080FDFDCF5A9A5E9808958EBD8DB55A
:10750000000087FFFCCF8EB508958FE08221E9F758
:10751000F2DFE3E6F6E05C9A40E458E060817181D6
:1075200098E08FEF60FF8F7070FF807FE7DF6695D8
:1075300076959A95B1F7E058FF4F5A9579F7EE5F37
:10754000F3404A9551F70895E3E6F1E097FC36C021
:1075500094FC4DC092FE089526842220E1F3F89415
:10756000C089D78520E030E080E090E4AFEFBFEF46
:10757000119682199040E0F72D01BD4F8D0127FD36
:1075800013C0E0E0F8E011928EE7819392E4E117F6
:1075900091939AE508F092E4E334C9F7819310825D
:1075A000B7DFFE01219697DF8BDFF90100D5205868
:1075B0003F4F040D151D2A9411F7FDC18301282D9D
:1075C00060906C0170906B0146D019F48823C1F76C
:1075D0000895380188243FD0E1F580916A0182172F
:1075E00009F4830160906E0170906D01F4CF60909A
:1075F0006E0170906D012FD081F48823C1F708953A
:107600009FEF95FC08C096FC05C093FE0895F8DE38
:10761000E9F3D1C191E097FB890E662477248301B9
:10762000222719D0B1F4882389F380916A0136F0BA
:10763000881650F4821730F0213003C0881520F4EA
:10764000281710F48301282F60906E0170906D014F
:10765000E8CF3801822EF3013EDF32DFC3E6D1E00E
:10766000E8E5F7E709908591081621F4EF35D1F7A1
:107670000880801040CFC9E025DFCA95E9F795FC66
:107680001EC097FC54C094FC35C0C3E6D2E0E3E6CC
:10769000F6E098E088E78E0F00840192E817E1F7A2
:1076A000884F09900192E817E1F7C858DF4F9A9583
:1076B00089F72BDFC85FD340C33E49F74BC0C3E611
:1076C000D6E0EBE5FAE098E08E2F8857029000862E
:1076D000E817E1F738960A900292E817E1F7389731
:1076E000C857D0409A9581F710DFC850DC4FC33E91
:1076F00041F730C0D0E1A3EEB6E0E3E6F6E09AE071
:10770000C6E00D9080818025807F802582958193C1
:10771000A336B90709F4B2E0E336F90709F4F2E059
:10772000E336FC0771F7F1DEDA9529F713C0D0E1F3
:10773000A3EEB9E0E3E6FAE092E00E9082918025B4
:107740008F70802582958083E336F907B1F7DDDEFF
:10775000DA9571F78827089541524455424F5915DB
:10776000003F75205FA055A100A200A87F81CFB186
:1077700021AF0000FFFFCFCFFFFFFFFFCFCFFFFF05
:107780000000FE067E7E06FE46565616FE0656464D
:107790001EFE3F61E9E3FFE3EBE3FFE3EBE3FFE121
:0277A0006B3F3D
:1077A200120110010200000841233700010000000D
:1077B200000109023E0002010080320904000001BA
:1077C200020201000524001001042402040524061B
:1077D2000001070582030800FF09040100020A00F4
:1077E20000000705040210000107058302100001D2
:1078000011241FBE8FEF9AE09EBF8DBF04B714BE38
:1078100088E18093600010926000F8DDA0E0B1E0A4
:10782000E2EAF7E79AC000000F928F939F931F92AE
:107830000FB60F9211244F936F938091DA0080FF5F
:107840003FC02BC00F920FB68F939F93EF93FF9380
:1078500088278093850080938400E0E5F1E09281A1
:10786000907261F490818917980B908309F45D9868
:1078700091818917980B918309F42898239411F426
:107880008315381EFF91EF915CC080E189BD82E1D4
:1078900089BD09B400FEFDCF08958091D80080FF16
:1078A0000FC08091DA008E7F8093DA008091D9003A
:1078B00080FF04C0EADF81E08EBB02C019BC1EBAA3
:1078C0008091E10080FF0BC025D280FF08C025D247
:1078D0008091D8008062F1DD19BC85E08EBB80917B
:1078E000E10084FF1AC016D284FF17C0CEDF80915A
:1078F000D8008F7DE2DD8FEE2AD00CD28F7E8160A2
:107900000FD280915301882331F48091E30087FDE9
:1079100002C081E001C084E08EBB8091E10083FF62
:107920000CC0F8D183FF09C087EF11D082E08EBB75
:10793000109253010BD0F1D100D26F914F910F9063
:107940001F909F918F910FBE0F9018958EEF009012
:10795000E10008220092E100089505900D92A03503
:10796000E1F71D92BB30E9F72224332400FF09C060
:107970007C9B07C0210143940BD3882312F040DD88
:10798000D1F45FDD31014101789465DE51D0EAD256
:107990009091520199235AF08FB18095807F669B18
:1079A00088601C9B8460982E2BDE8110CDDD3320F7
:1079B0006AF726DD59F3F89489EB8BDD81E080933B
:1079C000E00010926F0010928100109285001092DA
:1079D000840081E085BF15BE2E9A2F9A2D9A5D985E
:1079E00028980C94000091D107C053D102C0B7D29F
:1079F00039F08DD182FFFBCF85FFF7CF8091F10069
:107A00000895082E83E082D185FD07C077D102C09A
:107A1000A6D269F07CD180FFFBCF0092F10080916B
:107A2000520185FB26F05D9A84E68093500108950B
:107A30006CD182FF34C18091520185FB26F0289AD7
:107A400084E680935101CFDF182F853431F422244E
:107A50008EE7382E97D28DE007C1843511F4C3DF4D
:107A6000FACF8C34C1F38035B1F3843721F484E448
:107A7000C8DF80E0F9C0813611F489E5F5C08134B2
:107A800029F4B1DF582EAFDF482EE5CF803711F44F
:107A900083E5EAC0833539F4E8E5F7E78591B1DF9E
:107AA000EF35E1F7E2C0863521F481E3AADF85E313
:107AB000DBC0863761F481E3669B8E5F1C9B8F5F22
:107AC000A0DF8FB1809582958F708F5BCDC0883796
:107AD000A9F489DF80935201289884FD289A5D9843
:107AE00083FD5D9A2E9A81FD2E982F9A82FD2F9804
:107AF0002D9A80FD2D9887FD8824ADCF8A3649F4D4
:107B00008FE9F0DCC3E0FADC7CDFCA95E1F7F3DC57
:107B1000ACC0833731F487E874DF85E972DF8EE12A
:107B2000A3C0853639F4E0E8F3E754D2E058F040DA
:107B3000E0F791CF823631F489E563DF80E061DFE1
:107B400080E892C0823419F0873609F079C0332476
:107B50004ADFD82F48DFC82F46DF082F83548430F0
:107B600008F081C0063411F4440C551CF201109247
:107B70006F001736A1F4033471F483E0ADDCBEDC92
:107B800040DF2197E1F7B7DC08C0063411F4859196
:107B900001C0FED136DF2197C2F72F0149C003345F
:107BA000A1F48E2F8F7021F493DC80E295DC9DDCB4
:107BB0008FDC82E091DC17DFA1DCCA95E1F795DC70
:107BC0003196DA9571F72F0131C00634F1F49F0137
:107BD000F437D8F4FFD119C006DF063461F4C0FBD6
:107BE00046F0F43728F4182E81E087BFE895112479
:107BF0003296082E0AC0043439F4DF01B370AD594F
:107C0000B94F8D93319601C0C7D121972AF704341B
:107C100031F42F01F370FE2B49F47BDC07C00634EE
:107C200029F42F01F901F43708F4D2D18DE0E9DE0F
:107C3000063411F45694479482E080936F0015C087
:107C40008237E1E049F08634E0E031F08E34E3E061
:107C500019F0813531F4E2E0F0E089E087BF8491EA
:107C600003C08B3111F08FE3CCDE83E088D146D0A6
:107C700095FF03C009C073D191F049D080FFFBCFBD
:107C80003DD002C06CD159F042D080FFFBCF84E0E0
:107C900076D18BE734C061D1E4E5F1E067E0089587
:107CA00090915B0180915C01913231F0913A61F5E4
:107CB000813251F5F0DF73C0803231F5ECDF4FD106
:107CC000E9F08530D9F023D083FD18C082FFF7CFCB
:107CD00004C094DE8193615031F09091F300809163
:107CE000F200892BB1F7D5DF611549F704C037D110
:107CF00029F0853019F00BD080FFF9CF8EE79091F5
:107D0000E80089238093E800089584E038D18091C9
:107D1000E80008958091E2000895FCDF8E7F806185
:107D20008093E200089582E061EC09D083E061E88D
:107D300002D084E060E842E103C080E060E042E01D
:107D40001ED181E007D01092ED006093EC004093CB
:107D5000ED0008959091EB00892B8093EB0008953E
:107D600060E0923029F0913031F4E0E062E103C04C
:107D7000E2E16EE300C0F1E0089580915B018823A9
:107D80004CF402C0ECD051F0C2DF82FFFBCF81CFB8
:107D9000E6D021F0BCDF80FFFBCFB0DF089540913B
:107DA0006101509162014617510510F490E028C01E
:107DB000611511F0462FFACFA1DF40E0F7CFCFD009
:107DC00059F1853049F1A3DF83FD63CFA0DF82FD48
:107DD00020C080FF15C03091F3002091F20005C053
:107DE00081918093F10041502F5F411519F02830A7
:107DF0003105B0F350E02830310509F451E07EDF61
:107E00004115E9F65523D9F604C0A9D029F08530EB
:107E100019F07DDF82FFF9CF3CCFEBE5F1E0EEDD3D
:107E20008193E336E1F73CDF72DF83FF91C08091FD
:107E30005B0190915C01913009F170F09330F1F0A9
:107E4000953009F444C0963009F456C0983009F4CE
:107E500060C0993059F767C0823841F780915F015F
:107E60008DD02091EB001092E90077D022952695D5
:107E700021702093F1001092F10052C0882311F07C
:107E80008230A1F68F71823089F680915D0188235E
:107E9000D1F420915F01277049F22093E90080918D
:107EA000EB0080FF10C0933011F480E20BC080E142
:107EB00051DF81E0880F2A95E9F78093EA0010925C
:107EC000EA0088E047DF1092E90047D02AC0882303
:107ED00091F410915D0110680FB7F8943ED04DDF1A
:107EE00016DF80FFFDCF1093E300103883E009F424
:107EF00082E08EBB0FBF2CC08058823048F5809145
:107F00005D0190915E012CDF603011F126D047DFDA
:107F10001FC08038E9F421D0809153018093F10093
:107F2000EDDE2BDF15C0882399F490915D0192302E
:107F300078F49093530111D020DF8091530188236E
:107F400021F48091E30091E087FD94E09EBBEBDE9D
:107F5000DEDE83FF089580E2FDDE87EFD0CE8EB3B4
:107F600088230895FCDF69F08091E9008F931092D7
:107F7000E900CDDE83FF01C050DF8F9187708093D1
:107F8000E9000895F201F999FECFF2BDE1BD08952F
:107F9000F9DFF89A80B508C0F5DF1FBA80BD0FB6CB
:107FA000F894FA9AF99A0FBE31962F010895A3E634
:107FB000B1E0F437B8F40ED090E40D901D9081E05C
:107FC00087BFE89532969A95C1F71124E058F040A2
:107FD00085E001C083E001D081E187BFE89507B665
:067FE00000FCFDCF089536
:047FFC00DACFFBDC01
:040000030000740085
:00000001FF
