:1074000080E189BD82E189BD09B400FEFDCF089508
:10741000D4D569F08091E9008F931092E900A6D449
:1074200083FF01C028D58F9187708093E90008956C
:107430008EEF0090E10008220092E1000895F20131
:10744000F999FECFF2BDE1BD0895F9DFF89A80B554
:1074500008C0F5DF1FBA80BD0FB6F894FA9AF99A02
:107460000FBE31962F010895E0E0F0E085919491F0
:107470000196089580EE8BB98BEA34D01092890082
:107480008AEF8093880082E080936F0083E080938E
:107490008100E7E5F7E785913AD0E336E1F781E04F
:1074A0008093D7008AE482BF1092D8001092E20045
:1074B0001092DA001092E10080E808D019BC1EBAE0
:1074C0001092E00069D489E05AD481E98093D80011
:1074D0000895A3E6B1E090E81AD08D939A95E1F76C
:1074E000089586E008D010C083E005D08F2F0FD01C
:1074F0008E2F0DD080E05E9A729809C005D085E08D
:10750000FADF05D080FDFDCF729A5E9808958EBD9A
:107510008DB587FFFDCF8EB508958FE08221E9F705
:10752000F3DFE3E6F6E090EB5C98892FF0DF80E193
:10753000EEDF5C9A8191EBDF83E68E278F77D1F7C0
:107540009395983B89F70895E3E6F1E097FC38C0FE
:1075500094FC4FC092FE08958684882011F49924EB
:1075600059C0F894C089D78520E030E080E090E4ED
:10757000AFEFBFEF119688199040E0F72D01BD4F96
:107580008D0127FD13C0E0E0F8E011928EE78193B2
:1075900092E4E11791939AE508F092E4E334C9F795
:1075A00081931082BDDFFE0121969EDF92DFF901FB
:1075B00007D520583F4F040D151D8A9411F72AC294
:1075C0008301282D60906C0170906B0141D019F4FB
:1075D0008823C1F70895380188243AD0B9F58091FD
:1075E0006A01821709F4830160906E0170906D0149
:1075F000F4CF60906E0170906D012AD059F4882309
:10760000C1F708959FEF95FC03C096FE089591E0A1
:1076100097FB890E662477248301222719D0B1F4C1
:107620008823A1F380916A0136F0881650F48217FE
:1076300030F0213003C0881520F4281710F483019E
:10764000282F60906E0170906D01E8CF3801822E76
:10765000F3014ADF3EDFC3E6D1E0E0E5F7E709905A
:107660008591081621F4E735D1F7088080104CCFBA
:10767000C9E031DFCA95E9F7D0E195FC1EC097FC5F
:1076800053C094FC35C0C3E6D2E0E3E6F6E098E0F0
:1076900088E78E0F00840192E817E1F7884F099080
:1076A0000192E817E1F7C858DF4F9A9589F735DF5F
:1076B000C85FD340C33E49F749C0C3E6D6E0EBE517
:1076C000FAE098E08E2F885702900086E817E1F7DD
:1076D00038960A900292E817E1F73897C857D040D9
:1076E0009A9581F71ADFC850DC4FC33E41F72EC090
:1076F000A3EEB6E0E3E6F6E09AE0C6E00D90808106
:107700008025807F802582958193A336B90709F46F
:10771000B2E0E336F90709F4F2E0E336FC0771F76B
:10772000FCDEDA9529F712C0A3EEB9E0E3E6FAE051
:1077300092E00E90829180258F70802582958083C3
:10774000E336F907B1F7E9DEDA9571F7882708958E
:1077500041524455424F59D5F08D14A1C881CFD91B
:10776000F1AF000000FFFFCFCFFFFFFFFFCFCFFF44
:10777000FF0000FE067E7E06FE46565616FE0656A4
:10778000461EFE3F61E9E3FFE3EBE3FFE3EBE3FFCC
:04779000E16B3F006A
:10779400120110010200000841233600010000001C
:1077A400000109023E0002010080320904000001C8
:1077B4000202010005240010010424020405240629
:1077C4000001070582030800FF09040100020A0002
:1077D40000000705040210000107058302100001E0
:1078000011241FBE04B714BE88E18093600010925B
:1078100060008EEF9AE09EBF8DBF222433242101A9
:107820004394310141018AC00F928F939F931F921D
:107830000FB60F9211244F936F938091DA0080FF5F
:1078400037C023C00F920FB68F939F93EF93FF9390
:1078500088278093850080938400E0E5F1E09281A1
:10786000907261F490818917980B908309F45D9A66
:1078700091818917980B918309F4289A239411F424
:107880008315381EFF91EF9154C08091D80080FF7E
:107890000FC08091DA008E7F8093DA008091D9004A
:1078A00080FF04C0ADDD81E08EBB02C019BC1EBAF2
:1078B0008091E10080FF0BC05CD280FF08C05CD2E9
:1078C0008091D800806202DE19BC85E08EBB809179
:1078D000E10084FF1AC04DD284FF17C091DD809172
:1078E000D8008F7DF3DD8FEEA4DD43D28F7E8160E3
:1078F00046D280915301882331F48091E30087FDC3
:1079000002C081E001C084E08EBB8091E10083FF72
:107910000CC02FD283FF09C087EF8BDD82E08EBBC6
:107920001092530185DD28D237D26F914F910F907D
:107930001F909F918F910FBE0F90189580E88093B4
:10794000610010926100B1E0B5BF82E085BF81EFB8
:1079500085B987EE84B984E08DB984E48EB910BA14
:1079600080EF81BB80E68BB980EF8AB980E58CBD62
:10797000BDBDA0E0E4E9F7E705900D92A035E1F781
:107980008C911D92BB30E1F701FF0FC08B3A69F477
:1079900089EBA8DD80E880BF8DEA8093640089E9E7
:1079A0008093650085E083BF889500FF07C07C9BBE
:1079B00005C04BDD882312F057DD61F55BDD78945F
:1079C00047DE71F0ABE9B7E0E3E6F7E790E1059059
:1079D0000D929A95E1F7A059BF4FE339B9F7A1DDB0
:1079E00056D016DD80915201807881F48FB1809558
:1079F000807F66991C9B8460982E04DE8BEA882524
:107A00008093FF0A8110A0DD92FC02C0332042F770
:107A10002BDD31F3F89489EB65DD81E08093E000A4
:107A200010926F00109281001092850010928400D5
:107A300081E085BF15BE2E9A2F9A2D9A5D9A289ABD
:107A40000C94000091D107C053D102C0B6D239F0D6
:107A50008DD182FFFBCF85FFF7CF8091F100089594
:107A6000082E83E082D185FD07C077D102C0A5D260
:107A700069F07CD180FFFBCF0092F1008091520130
:107A8000807221F45D9884E68093500108956CD152
:107A900082FF34C180915201807221F4289884E6DB
:107AA00080935101CFDF182F853431F422248EE7E3
:107AB000382EC5DC8DE007C1843511F4C3DFFACF61
:107AC0008C34C1F38035B1F3843721F484E4C8DF0A
:107AD00080E0F9C0813611F489E5F5C0813429F4DC
:107AE000B1DF582EAFDF482EE5CF803711F483E5A4
:107AF000EAC0833539F4E0E5F7E78591B1DFE73592
:107B0000E1F7E2C0863521F481E3AADF86E3DBC03A
:107B1000863761F481E3669B8E5F1C9B8F5FA0DFDD
:107B20008FB1809582958F708F5BCDC08837A9F417
:107B300089DF80935201289A84FD28985D9A83FDFD
:107B40005D982E9A81FD2E982F9A82FD2F982D9A5E
:107B500080FD2D9887FD8824ADCF8A3649F48FE9C2
:107B6000CADCC3E0D4DC7CDFCA95E1F7CDDCACC075
:107B7000833731F487E874DF85E972DF8EE1A3C0D3
:107B8000853639F4E0E8F3E72ED2E058F040E0F72C
:107B900091CF823631F489E563DF80E061DF80E8F0
:107BA00092C0823419F0873609F079C033244ADF55
:107BB000D82F48DFC82F46DF082F8354843008F0C1
:107BC00081C0063411F4440C551CF20110926F0070
:107BD0001736A1F4033471F483E087DC98DC40DFCE
:107BE0002197E1F791DC08C0063411F4859101C0BA
:107BF0002CDC36DF2197C2F72F0149C00334A1F4F2
:107C00008E2F882321F46DDC88ED6FDC77DC69DC56
:107C100082E06BDC17DF7BDCCA95E1F76FDC319625
:107C2000DA9571F72F0131C00634F1F49F01F43772
:107C3000D8F4D9D119C006DF063461F4C0FB46F090
:107C4000F43728F4182E81E087BFE8951124329686
:107C5000082E0AC0043439F4DF01B370AD59B94FAE
:107C60008D93319601C0F5DB21972AF7043431F466
:107C70002F01F370FE2B49F454DC07C0063429F4BD
:107C80002F01F901F43708F4ACD18DE0E9DE0634B8
:107C900011F45694479482E080936F0015C08237A8
:107CA000E1E049F08634E0E031F08E34E3E019F0B1
:107CB000813531F4E2E0F0E089E087BF849103C0D0
:107CC0008B3111F08FE3CCDE83E0AFDB46D095FF44
:107CD00003C009C072D191F049D080FFFBCF3DD0E5
:107CE00002C06BD159F042D080FFFBCF84E09DDB16
:107CF0008BE734C060D1E4E5F1E067E0089590914E
:107D00005B0180915C01913231F0913A61F58132F1
:107D100051F5F0DF72C0803231F5ECDF4ED1E9F081
:107D20008530D9F023D083FD18C082FFF7CF04C07F
:107D300094DE8193615031F09091F3008091F200D4
:107D4000892BB1F7D5DF611549F704C036D129F089
:107D5000853019F00BD080FFF9CF8EE79091E800C5
:107D600089238093E800089584E05FDB8091E80038
:107D700008958091E2000895FCDF8E7F80618093FA
:107D8000E200089582E061EC09D083E061E802D06E
:107D900084E060E842E103C080E060E042E045DB6F
:107DA00081E007D01092ED006093EC004093ED006D
:107DB00008959091EB00892B8093EB00089560E08B
:107DC000923029F0913031F4E0E062E103C0E2E169
:107DD0006EE300C0F1E0089580915B0188234CF4CC
:107DE00002C0EBD0C1F3C2DF82FFFBCF81CFE5D071
:107DF00091F3BCDF80FFFBCFB0CF40916101509188
:107E000062014617510510F490E028C0611511F089
:107E1000462FFACFA2DF40E0F7CFCFD059F185301F
:107E200049F1A4DF83FD64CFA1DF82FD20C080FF84
:107E300015C03091F3002091F20005C0819180932C
:107E4000F10041502F5F411519F028303105B0F392
:107E500050E02830310509F451E07FDF4115E9F6A3
:107E60005523D9F604C0A9D029F0853019F07EDF5A
:107E700082FFF9CF3DCFEBE5F1E0EFDD8193E33613
:107E8000E1F73DDF73DF83FF91C080915B0190914B
:107E90005C01913009F170F09330F1F0953009F404
:107EA00044C0963009F456C0983009F460C0993047
:107EB00059F767C0823841F780915F01B5DA2091A8
:107EC000EB001092E90077D022952695217020933F
:107ED000F1001092F10052C0882311F08230A1F617
:107EE0008F71823089F680915D018823D1F42091D1
:107EF0005F01277049F22093E9008091EB0080FF39
:107F000010C0933011F480E20BC080E152DF81E0B9
:107F1000880F2A95E9F78093EA001092EA0088E03A
:107F200048DF1092E90047D02AC0882391F41091CD
:107F30005D0110680FB7F8943ED04EDF17DF80FF69
:107F4000FDCF1093E300103883E009F482E08EBB8C
:107F50000FBF2CC08058823048F580915D01909110
:107F60005E012DDF603011F126D047DF1FC0803861
:107F7000E9F421D0809153018093F100EEDE2CDFF3
:107F800015C0882399F490915D01923078F4909314
:107F9000530111D021DF80915301882321F4809176
:107FA000E30091E087FD94E09EBBECDEDFDE83FF23
:107FB000089580E2FEDE87EFD1CE8EB38823089548
:107FC000A3E6B1E0F437B8F40ED090E40D901D9024
:107FD00081E087BFE89532969A95C1F71124E05861
:107FE000F04085E001C083E001D081E187BFE895E2
:087FF00007B600FCFDCF089567
:047FFC00E3CFFBDCF8
:040000030000740085
:00000001FF
