:10740000F201F999FECFF2BDE1BD0895F9DFF89AD6
:1074100080B508C0F5DF1FBA80BD0FB6F894FA9AA0
:10742000F99A0FBE31962F010895E0E0F0E08591C2
:1074300094910196089520E82093610010926100D4
:1074400081E085BF82E085BF87E084B981E785B9A7
:1074500017B8469A10BA80EC81BB84EA8BB984EFE6
:107460008AB980E58CBD81E08DBD089580EE8BB931
:107470008BEA34D0109289008AEF8093880082E0F2
:1074800080936F0083E080938100E7E5F7E78591C3
:107490003AD0E336E1F781E08093D7008AE482BFF7
:1074A0001092D8001092E2001092DA001092E100DF
:1074B00080E808D019BC1EBA1092E00053D489E0CD
:1074C00044D481E98093D8000895A3E6B1E090E820
:1074D0001AD08D939A95E1F7089586E008D010C0F0
:1074E00083E005D08F2F0FD08E2F0DD080E05F9AD4
:1074F0005A9809C005D085E0FADF05D080FDFDCFA0
:107500005A9A5F9808958EBD8DB5000087FFFCCF15
:107510008EB508958FE08221E9F7F2DFE3E6F6E029
:1075200090EB5C98892FEFDF80E1EDDF5C9A819131
:10753000EADF83E68E278F77D1F79395983B89F71B
:107540000895E3E6F1E094FC36C096FC4DC090FE51
:10755000089526842220E1F3F894C089D78520E09D
:1075600030E080E090E4AFEFBFEF119682199040D9
:10757000E0F72D01BD4F8D0127FD13C0E0E0F8E0DD
:1075800011928EE7819392E4E11791939AE508F0C6
:1075900092E4E334C9F781931082BFDFFE012196A4
:1075A0009FDF93DFF90103D520583F4F040D151DD0
:1075B0002A9411F711C28301282D60906C017090FC
:1075C0006B0146D019F48823C1F708953801882447
:1075D0003FD0E1F580916A01821709F48301609040
:1075E0006E0170906D01F4CF60906E0170906D012E
:1075F0002FD081F48823C1F708959FEF95FC08C030
:1076000092FC05C091FE089510DFE9F3E5C191E019
:1076100097FB890E662477248301222719D0B1F4C1
:10762000882389F380916A0136F0881650F4821716
:1076300030F0213003C0881520F4281710F483019E
:10764000282F60906E0170906D01E8CF3801822E76
:10765000F30146DF3ADFC3E6D1E0E0E5F7E7099062
:107660008591081621F4E735D1F70880801048CFBE
:10767000C9E02DDFCA95E9F7D0E195FC1EC094FC66
:1076800053C096FC35C0C3E6D2E0E3E6F6E098E0EE
:1076900088E78E0F00840192E817E1F7884F099080
:1076A0000192E817E1F7C858DF4F9A9589F732DF62
:1076B000C85FD340C33E49F749C0C3E6D6E0EBE517
:1076C000FAE098E08E2F885702900086E817E1F7DD
:1076D00038960A900292E817E1F73897C857D040D9
:1076E0009A9581F717DFC850DC4FC33E41F72EC093
:1076F000A3EEB6E0E3E6F6E09AE0C6E00D90808106
:107700008025807F802582958193A336B90709F46F
:10771000B2E0E336F90709F4F2E0E336FC0771F76B
:10772000F9DEDA9529F712C0A3EEB9E0E3E6FAE054
:1077300092E00E90829180258F70802582958083C3
:10774000E336F907B1F7E6DEDA9571F78827089591
:1077500041524455424F59D5F08D14A1C881CFD91B
:10776000F1AF000000FFFFCFCFFFFFFFFFCFCFFF44
:10777000FF0000FE067E7E06FE46565616FE0656A4
:10778000461EFE3F61E9E3FFE3EBE3FFE3EBE3FFCC
:04779000E16B3F006A
:10779400120110010200000841233600010000001C
:1077A400000109023E0002010080320904000001C8
:1077B4000202010005240010010424020405240629
:1077C4000001070582030800FF09040100020A0002
:1077D40000000705040210000107058302100001E0
:1078000011241FBE8FEF9AE09EBF8DBF04B714BE38
:1078100088E18093600010926000222433242101CB
:1078200043943101410199C00F928F939F931F920E
:107830000FB60F9211244F936F938091DA0080FF5F
:107840003FC02BC00F920FB68F939F93EF93FF9380
:1078500088278093850080938400E0E5F1E09281A1
:10786000907261F490818917980B908309F45D9A66
:1078700091818917980B918309F4289A239411F424
:107880008315381EFF91EF915CC080E189BD82E1D4
:1078900089BD09B400FEFDCF08958091D80080FF16
:1078A0000FC08091DA008E7F8093DA008091D9003A
:1078B00080FF04C0EADF81E08EBB02C019BC1EBAA3
:1078C0008091E10080FF0BC03AD280FF08C03AD21D
:1078D0008091D8008062F6DD19BC85E08EBB809176
:1078E000E10084FF1AC02BD284FF17C0CEDF809145
:1078F000D8008F7DE7DD8FEE2AD021D28F7E816088
:1079000024D280915301882331F48091E30087FDD4
:1079100002C081E001C084E08EBB8091E10083FF62
:107920000CC00DD283FF09C087EF11D082E08EBB5F
:10793000109253010BD006D215D26F914F910F9038
:107940001F909F918F910FBE0F9018958EEF009012
:10795000E10008220092E10008956DDDA0E0B1E0B1
:10796000E4E9F7E705900D92A035E1F71D92BB30F1
:10797000E9F700FF07C01E9B05C048DD882312F011
:1079800054DD51F573DD789463DE79F0ABE9B7E04F
:10799000E3E6F7E703E010E105900D921A95E1F7B1
:1079A000A059BF4F0A95B9F7B9DD53D0F0D28091F5
:1079B0005201807869F483B180958077369B84602A
:1079C0007F9B82607E9B8160982E17DE8110B9DDDF
:1079D00033205AF72ADD49F3F89489EB7FDD81E003
:1079E0008093E00010926F00109281001092850049
:1079F0001092840081E085BF15BE289A289A289AA3
:107A00005D9A289A0C94000095D107C057D102C006
:107A1000BBD239F091D182FFFBCF85FFF7CF8091A8
:107A2000F1000895082E83E086D185FD07C07BD143
:107A300002C0AAD269F080D180FFFBCF0092F10092
:107A400080915201807221F45D9884E68093500108
:107A5000089570D182FF38C180915201807221F463
:107A6000289884E680935101CFDF182F853431F4B4
:107A700022248EE7382EC4DC8DE00BC1843511F44E
:107A8000C3DFFACF8C34C1F38035B1F3843721F4EE
:107A900084E4C8DF80E0FDC0813611F489E5F9C0D7
:107AA000813429F4B1DF582EAFDF482EE5CF80377F
:107AB00011F483E5EEC0833539F4E0E5F7E785910D
:107AC000B1DFE735E1F7E6C0863521F481E3AADFCF
:107AD00085E3DFC0863781F481E37F9B8E5F7E9BE9
:107AE0008F5FA0DF81E41C9B885F369B8C5F1D9BB2
:107AF0008E5F1E9B8F5FCDC08837A9F485DF809392
:107B00005201289A84FD28985D9A83FD5D98289AF1
:107B100081FD2898289A82FD2898289A80FD289827
:107B200087FD8824A9CF8A3649F48FE9E0DCC3E0D9
:107B3000EADC78DFCA95E1F7E3DCACC0833731F4E7
:107B400087E870DF85E96EDF8EE1A3C0853639F402
:107B5000E0E8F3E73FD2E058F040E0F78DCF82361F
:107B600031F489E55FDF80E05DDF80E892C0823438
:107B700019F0873609F079C0332446DFD82F44DF67
:107B8000C82F42DF082F8354843008F081C00634A8
:107B900011F4440C551CF20110926F001736A1F439
:107BA000033471F483E09DDCAEDC3CDF2197E1F728
:107BB000A7DC08C0063411F4859101C027DC32DF50
:107BC0002197C2F72F0149C00334A1F48E2F8F7083
:107BD00021F483DC80E285DC8DDC7FDC82E081DCEB
:107BE00013DF91DCCA95E1F785DC3196DA9571F700
:107BF0002F0131C00634F1F49F01F437D8F4EAD1F3
:107C000019C002DF063461F4C0FB46F0F43728F4F3
:107C1000182E81E087BFE89511243296082E0AC0FD
:107C2000043439F4DF01B370AD59B94F8D933196F7
:107C300001C0F0DB21972AF7043431F42F01F370EF
:107C4000FE2B49F46BDC07C0063429F42F01F9013F
:107C5000F43708F4BDD18DE0E5DE063411F4569416
:107C6000479482E080936F0015C08237E1E049F0CD
:107C70008634E0E031F08E34E3E019F0813531F400
:107C8000E2E0F0E089E087BF849103C08B3111F01E
:107C90008FE3C8DE83E088D146D095FF03C009C0DA
:107CA00073D191F049D080FFFBCF3DD002C06CD1A1
:107CB00059F042D080FFFBCF84E076D18BE734C00F
:107CC00061D1E4E5F1E067E0089590915B01809176
:107CD0005C01913231F0913A61F5813251F5F0DF7A
:107CE00073C0803231F5ECDF4FD1E9F08530D9F047
:107CF00023D083FD18C082FFF7CF04C090DE8193AC
:107D0000615031F09091F3008091F200892BB1F72E
:107D1000D5DF611549F704C037D129F0853019F056
:107D20000BD080FFF9CF8EE79091E80089238093F4
:107D3000E800089584E038D18091E80008958091AA
:107D4000E2000895FCDF8E7F80618093E200089559
:107D500082E061EC09D083E061E802D084E060E871
:107D600042E103C080E060E042E01ED181E007D044
:107D70001092ED006093EC004093ED000895909117
:107D8000EB00892B8093EB00089560E0923029F09E
:107D9000913031F4E0E062E103C0E2E16EE300C063
:107DA000F1E0089580915B0188234CF402C0ECD08F
:107DB00051F0C2DF82FFFBCF81CFE6D021F0BCDFE4
:107DC00080FFFBCFB0DF08954091610150916201C7
:107DD0004617510510F490E028C0611511F0462FA8
:107DE000FACFA1DF40E0F7CFCFD059F1853049F18C
:107DF000A3DF83FD63CFA0DF82FD20C080FF15C01D
:107E00003091F3002091F20005C081918093F10040
:107E100041502F5F411519F028303105B0F350E083
:107E20002830310509F451E07EDF4115E9F655238C
:107E3000D9F604C0A9D029F0853019F07DDF82FF82
:107E4000F9CF3CCFEBE5F1E0EADD8193E336E1F7F2
:107E50003CDF72DF83FF91C080915B0190915C01F8
:107E6000913009F170F09330F1F0953009F444C08D
:107E7000963009F456C0983009F460C0993059F72B
:107E800067C0823841F780915F018DD02091EB006F
:107E90001092E90077D02295269521702093F10069
:107EA0001092F10052C0882311F08230A1F68F7138
:107EB000823089F680915D018823D1F420915F01A1
:107EC000277049F22093E9008091EB0080FF10C0F9
:107ED000933011F480E20BC080E151DF81E0880F24
:107EE0002A95E9F78093EA001092EA0088E047DFDC
:107EF0001092E90047D02AC0882391F410915D01C7
:107F000010680FB7F8943ED04DDF16DF80FFFDCF2D
:107F10001093E300103883E009F482E08EBB0FBFBA
:107F20002CC08058823048F580915D0190915E01AF
:107F30002CDF603011F126D047DF1FC08038E9F414
:107F400021D0809153018093F100EDDE2BDF15C02D
:107F5000882399F490915D01923078F490935301C5
:107F600011D020DF80915301882321F48091E30018
:107F700091E087FD94E09EBBEBDEDEDE83FF08959B
:107F800080E2FDDE87EFD0CE8EB388230895FCDF3C
:107F900069F08091E9008F931092E900CDDE83FFB4
:107FA00001C050DF8F9187708093E9000895A3E6A8
:107FB000B1E0F437B8F40ED090E40D901D9081E05C
:107FC00087BFE89532969A95C1F71124E058F040A2
:107FD00085E001C083E001D081E187BFE89507B665
:067FE00000FCFDCF089536
:047FFC00DACFFBDC01
:040000030000740085
:00000001FF
