:1074000080E189BD82E189BD09B400FEFDCF089508
:10741000D5D569F08091E9008F931092E900AAD444
:1074200083FF01C029D58F9187708093E90008956B
:107430008EEF0090E10008220092E1000895F20131
:10744000F999FECFF2BDE1BD0895F9DFF89A80B554
:1074500008C0F5DF1FBA80BD0FB6F894FA9AF99A02
:107460000FBE31962F010895E0E0F0E085919491F0
:107470000196089572985F9A8BEA34D01092890031
:107480008AEF8093880082E080936F0083E080938E
:107490008100EFE6F7E785913AD0EB37E1F781E03D
:1074A0008093D7008AE482BF1092D8001092E20045
:1074B0001092DA001092E10080E808D019BC1EBAE0
:1074C0001092E0006DD489E05ED481E98093D80009
:1074D0000895A3E6B1E090E81AD08D939A95E1F76C
:1074E000089586E008D010C083E005D08F2F0FD01C
:1074F0008E2F0DD080E05E9A729809C005D085E08D
:10750000FADF05D080FDFDCF729A5E9808958EBD9A
:107510008DB587FFFDCF8EB508958FE08221E9F705
:10752000F3DFE3E6F6E090EB5C98892FF0DF80E193
:10753000EEDF5C9A8191EBDF83E68E278F77D1F7C0
:107540009395983B89F70895E3E6F1E097FC36C000
:1075500094FC4DC092FE089596849920D1F3F8943E
:10756000C089D78520E030E080E090E4AFEFBFEF46
:10757000119689199040E0F72D01BD4F8D0127FD2F
:1075800013C0E0E0F8E011928EE7819392E4E117F6
:1075900091939AE508F092E4E334C9F7819310825D
:1075A000BFDFFE012196A0DF94DFF9010AD5205844
:1075B0003F4F040D151D9A9411F71BC28301282D0E
:1075C00060906C0170906B0143D019F48823C1F76F
:1075D0000895380188243CD0C9F580916A0182174A
:1075E00009F4830160906E0170906D01F4CF80E129
:1075F000982E60906E0170906D012AD059F4882306
:10760000B1F708959FEF95FC03C096FE089591E0B1
:1076100097FB890E662477248301222719D0B1F4C1
:107620008823A1F380916A0136F0881650F48217FE
:1076300030F0213003C0881520F4281710F483019E
:10764000282F60906E0170906D01E8CF3801822E76
:10765000F3014ADF3EDFC3E6D1E0E8E6F7E7099051
:107660008591081621F4EF36D1F7088080104CCFB1
:10767000C9E031DFCA95E9F7D0E195FC1FC094FC61
:1076800038C096FC01C051C0C3E6D2E0E3E6F6E0A4
:1076900098E088E78E0F00840192E817E1F7884FA1
:1076A00009900192E817E1F7C858DF4F9A9589F7DA
:1076B00034DFC85FD340C33E49F749C0C3E6D6E0D4
:1076C000EBE5FAE098E08E2F885702900086E817E5
:1076D000E1F738960A900292E817E1F73897C85711
:1076E000D0409A9581F719DFC850DC4FC33E41F76F
:1076F0002EC0A3EEB6E0E3E6F6E09AE0C6E00D9019
:1077000080818025807F802582958193A336B9076B
:1077100009F4B2E0E336F90709F4F2E0E336FC07D6
:1077200071F7FBDEDA9529F712C0A3EEB9E0E3E6C4
:10773000FAE092E00E90829180258F7080258295EC
:107740008083E336F907B1F7E8DEDA9571F7882729
:10775000089580E880BF8DEA8093640089E9809372
:10776000650085E083BF889541524455424F59D505
:10777000F08D14A1C881CFD9F1AF000000FFFFCF79
:10778000CFFFFFFFFFCFCFFFFF0000FE067E7E068C
:10779000FE46565616FE0656461EFE3F61E9E3FFBC
:0C77A000E3EBE3FFE3EBE3FFE16B3F00F2
:1077AC001201100102000008412336000100000004
:1077BC00000109023E0002010080320904000001B0
:1077CC000202010005240010010424020405240611
:1077DC000001070582030800FF09040100020A00EA
:1077EC0000000705040210000107058302100001C8
:1078000011241FBE04B714BE88E18093600010925B
:1078100060008EEF9AE09EBF8DBF222433242101A9
:107820003101410180E88AC00F928F939F931F928C
:107830000FB60F9211244F936F938091DA0080FF5F
:1078400037C023C00F920FB68F939F93EF93FF9390
:1078500088278093850080938400E0E5F1E09281A1
:10786000907261F490818917980B908309F45D9A66
:1078700091818917980B918309F4289A239411F424
:107880008315381EFF91EF9154C08091D80080FF7E
:107890000FC08091DA008E7F8093DA008091D9004A
:1078A00080FF04C0ADDD81E08EBB02C019BC1EBAF2
:1078B0008091E10080FF0BC060D280FF08C060D2E1
:1078C0008091D800806202DE19BC85E08EBB809179
:1078D000E10084FF1AC051D284FF17C091DD80916E
:1078E000D8008F7DF3DD8FEEA4DD47D28F7E8160DF
:1078F0004AD280915301882331F48091E30087FDBF
:1079000002C081E001C084E08EBB8091E10083FF72
:107910000CC033D283FF09C087EF8BDD82E08EBBC2
:107920001092530185DD2CD23BD26F914F910F9075
:107930001F909F918F910FBE0F90189580936100BB
:1079400010926100B1E0B5BF82E085BF81EF85B9DB
:1079500087EE84B984E08DB984E48EB910BA83EFE0
:1079600081BB80E68BB980EF8AB980E58CBDBDBD57
:10797000A0E0ECEAF7E705900D92A035E1F78C91D5
:107980001D92BB30E1F7893B11F4ACDDE2CE00FF84
:1079900004C07C9B02C068DD61F56CDD789458DE24
:1079A00071F0ABE9B7E0EBE7F7E790E105900D92F6
:1079B0009A95E1F7A059BF4FEB3AB9F7B2DD56D02F
:1079C00027DD80915201807881F48FB18095807F8E
:1079D00066991C9B8460982E15DE89EB8825809320
:1079E000FF0A8110B1DD92FC02C0332042F73CDD7A
:1079F00031F3F89489EB76DD81E08093E00010921A
:107A00006F0010928100109285001092840081E036
:107A100085BF15BE2E9A2F9A2D9A5D9A289A0C949E
:107A20000000A6D107C057D102C0C8D239F0A2D1F8
:107A300082FFFBCF85FFF7CF8091F1000895082EDC
:107A400083E097D185FD07C08CD102C0B7D269F021
:107A500091D180FFFBCF0092F100809152018072A2
:107A600021F45D9884E680935001089581D182FFCE
:107A700034C180915201807221F4289884E6809369
:107A80005101CFDF182F853431F422248EE7382EB0
:107A9000D6DC8DE00BC1843511F4C3DFFACF8C3412
:107AA000C1F38035B1F3843721F484E4C8DF80E08A
:107AB000FDC0813611F489E5F9C0813429F4B1DFC4
:107AC000582EAFDF482EE5CF803711F483E5EEC0A6
:107AD000833539F4E8E6F7E78591B1DFEF36E1F772
:107AE000E6C0863521F482E3AADF80E3DFC0863773
:107AF00061F481E3669B8E5F1C9B8F5FA0DF8FB17B
:107B0000809582958F708F5BD1C08837A9F489DF0B
:107B100080935201289A84FD28985D9A83FD5D9890
:107B20002E9A81FD2E982F9A82FD2F982D9A80FDF6
:107B30002D9887FD8824ADCF8A3649F48FE9DBDCA8
:107B4000C3E0E5DC7CDFCA95E1F7DEDCB0C083375B
:107B500031F487E874DF85E972DF8EE1A7C08536EE
:107B600039F4E0E8F3E740D2E058F040E0F791CF95
:107B7000823631F489E563DF80E061DF80E896C01A
:107B8000823419F0873609F07DC033244ADFD82FBC
:107B900048DFC82F46DF082F8354843008F085C0A3
:107BA000063411F4440C551CF20110926F00173684
:107BB000B9F4033489F483E098DCA9DC8EB51EBCEB
:107BC0003EDF0DB42197D1F79FDC08C0063411F4D5
:107BD000859101C03ADC33DF2197C2F72F014AC0FB
:107BE0000334A9F4E11104C07CDC88ED7EDC86DC82
:107BF00078DC82E07ADC15DF0DB48EBDCA95D9F74A
:107C0000319686DC7BDCDA9569F72F0131C00634CA
:107C1000F1F49F01F437D8F4E7D119C002DF06343C
:107C200061F4C0FB46F0F43728F4182E81E087BFDA
:107C3000E89511243296082E0AC0043439F4DF0185
:107C4000B370AD59B94F8D93319601C002DC2197C5
:107C50002AF7043431F42F01F370FE2B49F461DC70
:107C600007C0063429F42F01F901F43708F4BAD11A
:107C70008DE0E5DE063411F45694479482E080935B
:107C80006F0015C08237E1E049F08634E0E031F062
:107C90008E34E3E019F0813531F4E2E0F0E089E080
:107CA00087BF849103C08B3111F08FE3C8DE83E07E
:107CB000BCDB57D095FF03C009C080D171F05AD00A
:107CC00080FFFBCF4ED002C079D139F053D080FF76
:107CD000FBCF84E0AADB8BE745C00895E4E5F1E043
:107CE00067E090915B0180915C01913231F0913AB3
:107CF000F1F58132E1F560D183C0823281F4819166
:107D0000805B8191844099F580915D0180FD2FC059
:107D1000F89481E08093E0001092FF0A71CD8032E8
:107D200031F54AD14BD1E9F08530D9F023D083FD2C
:107D300018C082FFF7CF04C07FDE8193615031F01D
:107D40009091F3008091F200892BB1F7C4DF6115A7
:107D500049F704C033D129F0853019F00BD080FFEA
:107D6000F9CF8EE79091E80089238093E800089589
:107D700084E05BDB8091E80008958091E200089543
:107D8000FCDF8E7F80618093E200089582E061ECE9
:107D900009D083E061E802D084E060E842E103C0FA
:107DA00080E060E042E041DB81E007D01092ED002E
:107DB0006093EC004093ED0008959091EB00892BC7
:107DC0008093EB00089560E0923029F0913029F41F
:107DD000E0E062E102C0E2E16EE3F1E0089580914B
:107DE0005B0188234CF402C0E9D0C1F3C3DF82FFFA
:107DF000FBCF71CFE3D091F3BDDF80FFFBCFB1CFDD
:107E000040916101509162014617510520F0462FC3
:107E1000611509F4A6DF50E022C0D0D061F18530B1
:107E200051F1A8DF83FD57CFA5DF82FD21C080FF80
:107E300016C03091F3002091F20006C0819180932A
:107E4000F10041502F5F3F4F411519F028303105A7
:107E5000A8F350E02830310509F451E082DF4115E4
:107E6000E1F65523D1F604C0A9D029F0853019F0E8
:107E700081DF82FFF9CF2FCFEBE5F1E0DDDD8193EC
:107E8000E336E1F72BDF76DF83FF91C080915B0162
:107E900090915C01913009F170F09330F1F09530E0
:107EA00009F444C0963009F456C0983009F460C013
:107EB000993059F767C0823841F780915F01B4DA91
:107EC0002091EB001092E90077D022952695217041
:107ED0002093F1001092F10052C0882311F08230FB
:107EE000A1F68F71823089F680915D018823D1F4EB
:107EF00020915F01277049F22093E9008091EB0007
:107F000080FF10C0933011F480E20BC080E155DF98
:107F100081E0880F2A95E9F78093EA001092EA0041
:107F200088E04BDF1092E90047D02AC0882391F403
:107F300010915D0110680FB7F8943ED050DF1ADF42
:107F400080FFFDCF1093E300103883E009F482E056
:107F50008EBB0FBF2CC08058823048F580915D01E8
:107F600090915E0130DF603011F126D049DF1FC0F3
:107F70008038E9F421D0809153018093F100F1DE43
:107F80002EDF15C0882399F490915D01923078F42A
:107F90009093530111D023DF80915301882321F462
:107FA0008091E30091E087FD94E09EBBEFDEE2DE8E
:107FB00083FF089580E201DF87EFD4CE8EB388235C
:107FC0000895A3E6B1E0F437B8F40ED090E40D9034
:107FD0001D9081E087BFE89532969A95C1F71124EC
:107FE000E058F04085E001C083E001D081E187BF27
:0A7FF000E89507B600FCFDCF0895E8
:067FFA003230E4CFFBDC95
:040000030000740085
:00000001FF
