:10740000E0E0F0E0859194910196089520E82093C2
:1074100061001092610081E085BF82E085BF81EF4D
:1074200085B987EE84B91DB8769A10BA80EF81BB12
:1074300082E28BB983E38AB980E58CBD81E08DBDA2
:10744000089580E28BB98BEA57D0109289008AEFB9
:107450008093880082E080936F0083E080938100B6
:10746000E7E0F1E05CD0E331E9F7ADE0B4E0E3E17F
:10747000F1E003E010E101900D921A95E1F7A059B7
:10748000BF4F0A95B9F754D081E08093D7008AE4C2
:1074900082BF1092D8001092E2001092DA0010928F
:1074A000E10080E808D019BC1EBA1092E00070D448
:1074B00089E05CD481E98093D8000895F201F999BC
:1074C000FECFF2BDE1BD0895F9DFF89A80B508C09E
:1074D000F5DF1FBA80BD0FB6F894FA9AF99A0FBE7D
:1074E00031962F010895A5EDB1E090E819D08D9364
:1074F0009A95E1F7089586E008D00FC083E005D0A3
:107500008F2F0ED08E2F0CD080E0599809C005D057
:1075100085E0FBDF05D080FDFDCF599A089581916C
:107520008EBD8DB5000087FFFCCF8EB50895F5DFC9
:10753000E5EDF2E090EB5C98892FF2DF80E1F0DF7F
:107540005C9AEDDF85ED8E278F77D9F79395983B81
:1075500091F70895E3ECF1E0819190810196908399
:107560008293092E0AF400940091C10106FB5EF09B
:107570000096929111F493959083000C081620F4D4
:107580002E9A589A2D9A0895937009F42E98913056
:1075900009F45898923009F42D980895EAEBF1E037
:1075A00097819923EAF08FB18095807F669B8860F0
:1075B0001C9B84609581891310C09681992381F466
:1075C0009381891306C09481992396E959F080E04C
:1075D0000AC083839095892304C085839AE09683AB
:1075E00080E09FEF9483828308958091C10186FF9C
:1075F000C7DF22243324EAEBF1E0108611861286DD
:10760000E5EDF1E08091BC0187FD36C084FD4DC001
:1076100082FF089526842220E1F3F894C089D7855B
:1076200020E030E080E090E4AFEFBFEF11968219E8
:107630009040E0F72D0100E015E727FD13C0E2E7D9
:10764000F4E011928EE7819392E491939AE5E11729
:1076500008F092E4E63BC9F78193108268DFFE01EF
:1076600021964CDF40DFF90125D320583F4F040D10
:10767000151D2A9411F7AFC18301282D6090DE01FA
:107680007090DD0146D019F48823C1F708953801C0
:1076900088243FD0E1F58091DC01821709F4830151
:1076A0006090E0017090DF01F4CF6090E001709095
:1076B000DF012FD081F48823C1F708959FEF85FD66
:1076C00008C086FD05C083FF08959ADEE9F383C1F3
:1076D00091E097FB890E662477248301222719D035
:1076E000B1F4882389F38091DC0136F0881650F4D8
:1076F000821730F0213003C0881520F4281710F4C9
:107700008301282F6090E0017090DF01E8CF3801FD
:10771000822EF301F3DEE7DEC5EDD1E0E0E0F1E03B
:1077200097E009908191081621F49A95D1F7088085
:107730008010F3CEC9E0D9DECA95E9F7F8DE8827D4
:027740000895AA
:1077420041524455424F59D5F08D14A1C881CFD929
:10775200F1AF000000FFFFCFCFFFFFFFFFCFCFFF52
:10776200FF0000FE067E7E06FE46565616FE0656B2
:10777200461EFE3F61E9E3FFE3EBE3FFE3EBE3FFDA
:10778200E16B3F12011001020000084123360001A3
:10779200000001000109023E0002010080320904DA
:1077A2000000010202010005240010010424020469
:1077B2000524060001070582030800FF09040100F1
:1077C200020A0000000705040210000107058302F7
:1077D20010000104030904220341007200640075D1
:1077E2000069006E006F0020004C0065006F006EA3
:0A77F200006100720064006F0000E7
:1078000011241FBE8DEF9AE09EBF8DBF04B714BE3A
:1078100088E18093600010926000409100085091D0
:1078200001086F917F91A6C00F928F939F931F9233
:107830000FB60F9211244F936F938091DA0080FF5F
:107840004CC038C00F920FB68F939F93EF93FF9366
:1078500088278093850080938400EAEBF1E097818C
:10786000907261F490818917980B908309F45D9A66
:1078700091818917980B918309F4289A96819150E8
:1078800008F096839481915008F09483881639F417
:107890007C9B05C0B5DD19F0C10101961C01FF916B
:1078A000EF915CC080E189BD82E189BD09B400FE31
:1078B000FDCF08958091D80080FF0FC08091DA003D
:1078C0008E7F8093DA008091D90080FF04C0EADFC8
:1078D00081E08EBB02C019BC1EBA8091E10080FF1E
:1078E0000BC03ED280FF08C03ED28091D80080629B
:1078F000E2DD19BC85E08EBB8091E10084FF1AC0F7
:107900002FD284FF17C0CEDF8091D8008F7DD3DDCA
:107910008FEE2AD025D28F7E816028D28091C5013A
:10792000882331F48091E30087FD02C081E001C02B
:1079300084E08EBB8091E10083FF0CC011D283FFF5
:1079400009C087EF11D082E08EBB1092C5010BD029
:107950000AD21ED26F914F910F901F909F918F91DD
:107960000FBE0F9018958EEF0090E1000822009254
:10797000E10008954BDDA0E0B1E0E2E4F7E7059017
:107980000D92A93BE1F71D92BB30E9F701FD0FC055
:1079900000FF03C07C9B0BC008C003FF08C06757F3
:1079A000774729F04757574711F02ADDA1F449DD01
:1079B0002224332431018824ACDE789447D007D3C5
:1079C000EDDD7CDE811411F010DEF8CFC3DDC101E6
:1079D000805B964398F3F89489EB8EDD81E0809389
:1079E000E00010926F0010928100109285001092BA
:1079F000840081E085BF15BEC3DD5D9A289A0C9492
:107A00000000A9D107C054D102C0DED239F0A5D1FF
:107A100082FFFBCF85FFF7CF8091F1000895082EFC
:107A200083E09AD185FD07C08FD102C0CDD269F025
:107A300094D180FFFBCF0092F1008091C10185FBC2
:107A400026F05D9884E68093BA01089584D182FF80
:107A50004CC18091C10185FB26F0289884E6809373
:107A6000BB01CFDF182F853431F48CEB94E31C017C
:107A700025DD8DE008C1843511F4C3DFFACF8C34E5
:107A8000C1F38035B1F3843721F484E4C8DF80E0AA
:107A9000FAC0813611F489E5F6C0813429F4B1DFEA
:107AA000582EAFDF482EE5CF803711F483E5EBC0C9
:107AB000833539F4C0E0D1E08991B1DFC730E1F717
:107AC000E3C0863521F481E3AADF84E3DCC0863796
:107AD00061F481E3669B8E5F1C9B8F5FA0DF8FB19B
:107AE000809582958F708F5BCEC08837A9F489DF2F
:107AF0008093C101289A84FD28985D9A83FD5D9842
:107B00002E9A81FD2E98589A82FD58982D9A80FDC4
:107B10002D9887FD8824ADCF8A3649F48FE9F5DCAE
:107B2000C3E0FEDC7CDFCA95E1F7F7DCADC083374C
:107B300031F487E874DF85E972DF8EE1A4C0853611
:107B400039F4E0E8F3E7C9D0E058F040E0F791CF2E
:107B5000823631F489E563DF80E061DF80E893C03D
:107B6000823419F0873609F07AC02224332449DFA1
:107B7000D82F47DFC82F45DF082F8354843008F003
:107B800081C0063411F4440C551CF20110926F00B0
:107B90001736A1F4033471F483E0B1DCC1DC3FDFBC
:107BA0002197E1F7BADC08C0063411F4859101C0D1
:107BB0008BDC35DF2197C2F72F0149C00334A1F4D4
:107BC0008E2F8F7021F497DC80E299DCA0DC93DCAF
:107BD00082E095DC16DFA4DCCA95E1F798DC3196EB
:107BE000DA9571F72F0131C00634F1F49F01F437B3
:107BF000D8F473D019C005DF063461F4C0FB46F039
:107C0000F43728F4182E81E087BFE89511243296C6
:107C1000082E0AC0043439F4DF01B370AB52BD4FF3
:107C20008D93319601C054DC21972AF7043431F446
:107C30002F01F370FE2B49F47BDC07C0063429F4D6
:107C40002F01F901F43708F446D08DE0E8DE063460
:107C500011F45694479482E080936F0015C08237E8
:107C6000E1E049F08634E0E031F08E34E3E019F0F1
:107C7000813531F4E2E0F0E089E087BF849103C010
:107C80008B3111F08FE3CBDE83E0AED15DD095FF79
:107C900003C009C099D149F160D080FFFBCF54D017
:107CA00002C092D111F159D080FFFBCF84E09CD16A
:107CB0008BE74BC0A5EDB1E0F437B8F40ED090E4FB
:107CC0000D901D9081E087BFE89532969A95C1F797
:107CD0001124E058F04085E001C083E001D081E14B
:107CE00087BFE89507B600FCFDCF08959091CD01C0
:107CF0008091CE01913231F0913A61F5813251F5A6
:107D000038D082C0803231F534D05ED1E9F0853090
:107D1000D9F023D083FD18C082FFF7CF04C07CDEEA
:107D20008193615031F09091F3008091F200892BA2
:107D3000B1F7BEDF611549F704C046D129F085309F
:107D400019F00BD080FFF9CF8EE79091E8008923DE
:107D50008093E800089584E047D18091E800089579
:107D60008091E2000895FCDF8E7F80618093E200C5
:107D7000089528D1E6ECF1E067E0089582E061EC37
:107D800009D083E061E802D084E060E842E103C00A
:107D900080E060E042E028D181E007D01092ED0061
:107DA0006093EC004093ED0008959091EB00892BD7
:107DB0008093EB00089560E0923039F0933041F009
:107DC000913071F4E3E462E10BC0E5E56EE308C0D5
:107DD000813018F4E3E964E003C011F4E7E962E2FA
:107DE000F1E008958091CD0188234CF402C0ECD0DD
:107DF00051F0B3DF82FFFBCF5BCFE6D021F0ADDFE8
:107E000080FFFBCFA1DF08954091D3015091D401B1
:107E10004617510510F490E028C0611511F0462F67
:107E2000FACF92DF40E0F7CFCFD059F1853049F15A
:107E300094DF83FD3DCF91DF82FD20C080FF15C020
:107E40003091F3002091F20005C081918093F10000
:107E500041502F5F411519F028303105B0F350E043
:107E60002830310509F451E06FDF4115E9F655235B
:107E7000D9F604C0A9D029F0853019F06EDF82FF51
:107E8000F9CF16CFEDECF1E0C7DD8193E53DE1F7E9
:107E90002DDF63DF83FF91C08091CD019091CE01F2
:107EA000913009F170F09330F1F0953009F444C04D
:107EB000963009F456C0983009F460C0993059F7EB
:107EC00067C0823841F78091D1018DD02091EB00BD
:107ED0001092E90077D02295269521702093F10029
:107EE0001092F10052C0882311F08230A1F68F71F8
:107EF000823089F68091CF018823D1F42091D1017D
:107F0000277049F22093E9008091EB0080FF10C0B8
:107F1000933011F480E20BC080E147DF81E0880FED
:107F20002A95E9F78093EA001092EA0088E03DDFA5
:107F30001092E90047D02AC0882391F41091CF0114
:107F400010680FB7F8943ED04DDF07DF80FFFDCFFC
:107F50001093E300103883E009F482E08EBB0FBF7A
:107F60002CC08058823048F58091CF019091D0018B
:107F700022DF603011F126D047DF1FC08038E9F4DE
:107F800021D08091C5018093F100DEDE2BDF15C08A
:107F9000882399F49091CF01923078F49093C501A1
:107FA00011D020DF8091C501882321F48091E30066
:107FB00091E087FD94E09EBBE1DECFDE83FF089574
:107FC00080E2F3DE87EFC1CE8EB388230895FCDF15
:107FD00069F08091E9008F931092E900BEDE83FF83
:0E7FE00001C050DF8F9187708093E9000895F3
:047FFC005DCEFBDC7F
:040000030000740085
:00000001FF
